:020000040800F2
:10000000F02C00207902000899230008611F0008E5
:100010006F230008B5190008C7430008000000005E
:10002000000000000000000000000000C13A0008CD
:10003000D31A00080000000027030008593C0008FC
:10004000930200089302000893020008930200083C
:10005000930200089302000893020008930200082C
:10006000930200089302000893020008930200081C
:10007000930200089302000893020008930200080C
:1000800093020008930200089302000893020008FC
:1000900093020008930200089302000893020008EC
:1000A00093020008930200089302000893020008DC
:1000B000493D000893020008913D000893020008A2
:1000C00093020008930200089302000893020008BC
:1000D00093020008F13F00089302000895410008D0
:1000E000930200089302000893020008930200089C
:1000F000930200089302000893020008930200088C
:10010000930200089302000893020008930200087B
:10011000193F0008930200089302000893020008A8
:10012000930200089302000893020008930200085B
:1001300000F002F800F090F80AA090E8000C824469
:100140008344AAF10107DA4501D100F085F8AFF246
:10015000090EBAE80F0013F0010F18BFFB1A43F0A5
:10016000010318477446000094460000103A24BF6B
:1001700078C878C1FAD8520724BF30C830C144BF0C
:1001800004680C607047000000230024002500264E
:10019000103A28BF78C1FBD8520728BF30C148BFEA
:1001A0000B6070476E2900F0A381702900F0E58292
:1001B000662904F0F381652904F0F081672904F0D1
:1001C000ED816129AFF3008003681B0A28BF41F06D
:1001D0008001692900F05081642900F04D81752962
:1001E00000F04A816F2900F07282782900F0B18214
:1001F000E92900F00D82E42900F00A82F52900F0D7
:100200000782EF2900F06F82F82900F0B0820368BE
:10021000DB0928BF41F08001632900F03286732991
:1002200000F03786E32900F04286F32900F0478684
:10023000002070471FB500F093FE0400002000214D
:1002400004F096F9401C60600020002104F07AF967
:10025000E0601FBD10B510BD00F055FE1146FFF760
:10026000E9FF04F0F1F800F02DFF03B4FFF7F2FF0F
:1002700003BC00F075FF00000948804709480047AB
:10028000FEE7FEE7FEE7FEE7FEE7FEE7FEE7FEE746
:10029000FEE7FEE704480549054A064B70470000A3
:1002A000E93C000831010008F0260020F02C002075
:1002B000F0280020F028002072B6704762B6704720
:1002C000EFF3108072B6704780F310887047B0FA71
:1002D00080F0704790FAA0F0704730BF704720BFA1
:1002E00070470000EFF3108072B6704780F31088FB
:1002F00070471D484FF0FF010170002080F309880E
:100300001A48012101701A484FF08051016062B60D
:10031000FEE717484FF080510160704714484FF0D6
:1003200080510160704772B6EFF3098028B1203820
:1003300080E8F00F0F490968086000B50E48804753
:100340005DF804EB0D480E490A78027009480D4922
:100350000A680260106890E8F00F203080F3098886
:100360004EF0040E62B6704722ED00E08A000020D5
:1003700004ED00E090000020AD2C00088300002078
:1003800084000020980000201CB50C46064B7B44DE
:1003900069460090204600F0C4F8044600206946F3
:1003A00000F0D2F820461CBDB7010000704770472E
:1003B000704770B5044685690068C10601D53026CE
:1003C00000E02026C00707D070BDD4E901213046E7
:1003D0009047206A401C20626D1EF6D570BD70B536
:1003E000044685690078C00707D170BDD4E90121B2
:1003F00020209047206A401C20626D1EF6D570BDFB
:1004000009684A0501D540B27047C905FCD500B25C
:10041000704709684A0501D5C0B27047C905FCD5C7
:1004200080B2704770B50C460546012A05D0287881
:10043000800600D5EA69002302E0012305E05B1C89
:10044000934202D2E05C0028F9D1A869E618C01AEC
:10045000A861286A184428622846FFF7AAFF04E02A
:10046000D5E9012114F8010B9047B442F8D328468E
:10047000FFF7B5FF70BD00002DE9F04106460024EE
:1004800010687529314616A510D0FFF7B9FF00286E
:1004900002DA404213A507E031688A0701D512A5A8
:1004A00002E0490704D511A5012401E0FFF7B1FFDF
:1004B00000210A2206F1240709E0B0FBF2FCB0FBA0
:1004C000F2F302FB1C00303078541846491C002817
:1004D000F3D123462A463046BDE8F04100F061BA28
:1004E000000000002D0000002B0000002000000094
:1004F00011680268006A530501D508700AE0D30547
:1005000001D5088006E0130603D5C217C1E9000231
:1005100000E008600120704701694A1C0261087808
:10052000704700B58FB0CDE9013100210591054933
:100530007944CDE903101146684600F029F90FB05F
:1005400000BD0000E5FFFFFF0A6802F8010B0A602A
:10055000704700002DE9FF5F15468A460446DFF824
:10056000AC80F8440027D8E900103E46CDE90010E1
:1005700010E03AF816106A4602A800F0A4FC411CEC
:1005800007D02178890603D5E269391891420DD840
:100590000744761C2078800602D5E069B84205DD64
:1005A000AE42E6DB3AF816000028E2D1A069C01B93
:1005B000A0612046FFF7FDFED8E90010CDE900104C
:1005C000002017E03AF818106A4602A800F07BFCF9
:1005D000B0F1FF3F81460BD000250DF1080B05E07F
:1005E000D4E901211BF8050090476D1C4D45F7D358
:1005F00008F10100B0428046E4DB206A3844206202
:100600002046FFF7ECFEBDE8FF9F00009A41000086
:100610002DE9F0418046D21D22F007020025D2E9E3
:100620000002F52915A614D0011E72F1000106DAA8
:100630000023D0EB030063EB020211A608E0D8F818
:1006400000108B0701D50FA602E0490701D50EA6C1
:1006500001251146002408F1240704E000F05CF9AC
:1006600030323A55641C50EA0102F7D12B4632462B
:1006700021464046BDE8F04100F093B9000000007B
:100680002D0000002B0000002000000030B40021ED
:1006900000F1240408E002F00705D208303542EAF0
:1006A0004372DB086554491C52EA0305F3D1046820
:1006B000002310A2250707D5A40600D421B1C469E0
:1006C00001230DA2641EC46130BC00F06AB910B5EC
:1006D000044621461068FFF79CFE02462046BDE80E
:1006E00010400023D2E7D21D22F00701D1E90023F8
:1006F000CCE700000000000030000000F0B40D4620
:100700000188090502D5214C7C4402E01F4C7C4441
:100710000E34002100F1240608E002F00F07120950
:10072000E75D42EA03721B097754491C52EA03074A
:10073000F3D102780023120704D5702D06D009B139
:10074000022311342246F0BC00F02BB901231034EF
:10075000F8E770B504460D4621461068FFF759FECC
:10076000024629462046BDE870400023C6E7D21D58
:1007700022F00703D3E90023C0E70368126843F0BF
:10078000200303600823C3610023B7E7FC3F000098
:100790002DE9F05F894604464FF0000ADFF874B196
:1007A000FB44C0F820A02046E1688847002874D0A8
:1007B000252806D0D4E901219047206A401C2062F8
:1007C000F1E700265F462046E16888472028054675
:1007D00007DB312D05D2781910F8200C08B106433B
:1007E000F1E7B00701D526F00406C4F81CA00027E5
:1007F000C4F818A02A2D09D0284603F0FAFD38B312
:1008000004EB8708303DC8F8185019E059F8041B6C
:10081000204604EB87029161E1688847012F054675
:1008200018D1E069002820DA26F020061DE0D8F86B
:10083000180000EB800005EB40003038C8F81800C5
:100840002046E1688847054603F0D3FD0028EED135
:10085000012F0AD02E2D08D12046E16888477F1C41
:100860000546022F46F02006C4DBA069002803DA03
:10087000404246F00106A061F00701D026F01006C4
:100880006C2D0BD0682D09D04C2D39D06A2D35D068
:10089000742D35D07A2D33D016E038E0E1682F463C
:1008A00020468847B842054609D16C2F26D04FF420
:1008B0008060E168064320468847054604E06C2FC7
:1008C0001AD04FF4807006430DB3A5F141001928EA
:1008D00002D8203546F400664A462946204626605E
:1008E0004E46FFF75FFC80B101280BD0F61D26F0C5
:1008F000070000F1080956E74020E4E78020D8E728
:100900000020D6E706F104094DE7284652E7206AA1
:10091000BDE8F09F8C3F000030B5B0F10A024FEA0D
:10092000900E71F100034EEA817EB0EB0E0061EB98
:1009300091014FEA101E4EEA017E10EB0E0041EBD2
:1009400011114FEA102E4EEA016E10EB0E0041EB32
:1009500011214FEA104E4EEA014E10EB0E0041EB12
:100960001141401841F100014FEAD00040EA4170C6
:100970004FEAD10110EB80054FEA810444EA9074FC
:1009800044EB01046D1944EB0404521BA3414FF0E6
:10099000000348BF0A3200D530BD401C41F10001C0
:1009A00030BD2DE9F0470D4699469246044600F1C8
:1009B00024080168880604D5E06921F0100121604F
:1009C00000E00120A84201DD471B00E00027A169EB
:1009D0007A1902EB0900081AA0612078C00602D437
:1009E0002046FFF7E6FC002608E0D4E901211AF8CA
:1009F00006009047206A401C761C20624E45F4DBBE
:100A00002078C0060AD52046FFF7D3FC06E0D4E9DB
:100A1000012130209047206A401C2062381EA7F137
:100A20000107F4DC07E0D4E9012118F8050090473C
:100A3000206A401C2062281EA5F10105F3DC204637
:100A4000FFF7CDFC2078000602D50220BDE8F08734
:100A50000120FBE770472DE9FF4F0C461E464FF083
:100A6000FF378BB0D2E90001DDF860800A908A463A
:100A7000C1F30A5505B93D46002108464FF0000074
:100A8000BAF1000F00F4400005DA00EB80004FF4EB
:100A9000400101EA50004FEA9059B9F1010F00DD21
:100AA000B9460A9850EA4A000ED044F61050A5F212
:100AB000FF3545432F14B8F1000F1ED07542291E93
:100AC0001EDDC9F100021CE0B8F1010F4FF000007B
:100AD00001D0302103E0F24305E02154401CB04234
:100AE000FBDB30460022002121540B99C1F808801D
:100AF000C1E900200FB0BDE8F08FBD1B6D1CDEE723
:100B00004A4600DA694206A800F06EFA06AB93E89E
:100B1000070003AB83E8070050460A9900F027FB63
:100B20008DE80700A0F500501F3800900398002DB5
:100B300009DD42F21F014A46084403A903906846B2
:100B400000F086FD08E0A0F500504A461F3803A9D2
:100B50000390684600F090FD8DE807000004000C4B
:100B600003D04FF0FF30410800E01046B8F1000F0D
:100B700003D00022009215461EE0751E05D4FFF733
:100B8000CBFE303262556D1EF9D5B34601220843C3
:100B900002D000227F1C04E02078302801D10022FE
:100BA0007F1E002A099786D01DE0112D07DAFFF776
:100BB000B3FE303262556D1C50EA0102F5D1084394
:100BC00002D00098C8B10EE00021681E05E0235C49
:100BD000625C63542254401E491C8142F7DBAB46E1
:100BE000A81B401E0990002004F80B000B98099ADE
:100BF000C0F80880C0E9002B7CE711264FF0000800
:100C000059E72DE9F04F88460446D21D22F007012E
:100C100091B0D1E90001CDE90A0103F0D6FB02460B
:100C20000B98C00F01D02D2007E02068810701D567
:100C30002B2002E0202101EAC000032A099001D004
:100C4000072A05DB03464146204600F08DF90BE1FB
:100C50002078800601D5E06900E00620B8F1650F34
:100C6000814606D0B8F1660F18D0B8F1670F70D181
:100C700031E00020B9F1110F009001DB112301E0F8
:100C800009F101030AAA01A90CA8FFF7E4FEDDE9B6
:100C90000C70002609F10105834647E001204B4610
:100CA00000904FF000470AAA01A90CA8FFF7D3FE55
:100CB000DDE90DB00C995D46002610B909F101007F
:100CC0000D18B9EB050003D4C0F1FF3609F1010599
:100CD000A5EB09002BE0B9F1010F01DA4FF0010992
:100CE0000020B9F1110F0090484601DD112300E00A
:100CF00003460AAA01A90CA8FFF7ADFEDDE90C70B6
:100D00004D4600268346207800070AD4AB4500DA1A
:100D10005D4601A8012D04DD411911F8011C30299F
:100D200007D04F4502DA17F1040F04DA012082469A
:100D30000FE06D1EEEE7002F02DCED1B3E4403E0EA
:100D4000781CA84200DD7D1CB81B00F1010A4FF0A1
:100D500000472078000703D4AA4501DB4FF0FF3A93
:100D60000021B7F1004F0DF143088DF8431024D056
:100D700002202B23002F01DA7F422D230A21021E9D
:100D8000A0F1010000DC5FB197FBF1FC97FBF1F2F1
:100D900001FB1C7C17460CF1300C08F801CDEEE786
:100DA000A8F1010003702188090501D5452100E063
:100DB0006521A0F1010800F8011C09980FA9A1EB19
:100DC0000807FF1D00B10120411901EBEA70A1697C
:100DD0003844081A401EA0612078C00602D420467C
:100DE000FFF7E7FA099828B1D4E901219047206A72
:100DF000401C20622078C00622D52046FFF7D9FA91
:100E00001EE0002E04DBB34502DD01A8805D00E09A
:100E10003020D4E901219047206A401C2062761CD2
:100E2000AAF101005FEA000A0AD100F099F8C0684F
:100E30000168405CD4E901219047206A401C20628F
:100E4000281EA5F10105DCDC07E0D4E9012118F832
:100E5000010B9047206A401C2062381EA7F1010751
:100E6000F3DC2046FFF7BBFA032011B043E610B5D0
:100E7000436913B1AFF3008001E0FFF7D3FA01201B
:100E800010BD127800F124010A7000224A7001227C
:100E9000EDE711684FF0FF32E9E710B5436913B190
:100EA000AFF3008001E0FFF755FB012010BD128871
:100EB00000F1240182840022C2840122EDE711683E
:100EC0004FF0FF32E9E770B516460C46054600F0D4
:100ED0003FF8036893F80101012806D0FF2C0FD8D2
:100EE000185D68B101202C7070BDD3F8070132463F
:100EF000214603F2071303442846BDE87040184713
:100F00004FF0FF3070BD754600F0E6F8AE460500C4
:100F10006946534620F00700854618B020B5FFF714
:100F2000B9F9BDE820404FF000064FF000074FF040
:100F300000084FF0000B21F00701AC46ACE8C009F7
:100F4000ACE8C009ACE8C009ACE8C0098D46704700
:100F500010B500F005F8001D10BD00BF15360000EB
:100F600000487047AC2600202DE9F0411F4604469A
:100F700003260168072A01F4006004DB08B116A506
:100F800005E016A503E008B115A500E015A521F0C0
:100F900010002060A069C01EA0610FB1401EA061BA
:100FA0002046FFF706FA4FB1D4E9012138469047B1
:100FB000206A401C2062C01C206206E0206AFAE71A
:100FC000D4E9012115F8010B9047761EF8D220468E
:100FD000FFF705FABDE8F0814E414E006E616E00EC
:100FE000494E4600696E66002DE9F0478146164677
:100FF0008AB0334878440DC88DE80D0030487844F5
:10100000801C03AC0DC884E80D0041F69B300844F9
:10101000372190FBF1F290FBF1F5A5F1800501FB82
:1010200012041B3C02D56442012000E00020DFF8DE
:1010300090A080460027FA44AAF1BE0A0DE0E0071E
:1010400009D03246684607EB47010AEB810100F000
:1010500013FB8DE8070064107F1C002CEFD1184FA4
:101060007F44AC3F18E0E80714D007EB04100DF103
:10107000180A90E80E008AE80E00C068F04201D11C
:1010800098190890324606A903A800F0F5FA03ABB8
:1010900083E807006D10641C002DE4D132466946D8
:1010A000B8F1000F03A802D000F0D2FA01E000F07E
:1010B000E3FAC9E90001C9F808200AB0BDE8F087E1
:1010C000C837000010B50446AFF300802046BDE8E5
:1010D0001040FFF7CAB80000004870478C26002077
:1010E0004FF0013C50F8042B51F8043B9A4221D1B7
:1010F000A2EB0C03934313EACC1317D150F8042B43
:1011000051F8043B9A4215D1A2EB0C03934313EA26
:10111000CC130BD150F8042B51F8043B9A4209D15F
:10112000A2EB0C03934313EACC13DBD04FF0000087
:10113000704700BFD01A01BAB1FA81F101F018016D
:1011400022FA01F0CB40C1F12001DBB2C0B2C01ADB
:101150002CFA01F3D11A914311EAC311E6D1704779
:1011600001491820ABBEFEE72600020070475FEA87
:10117000400C08BF91F0000F4FEA8C234FEAC122C8
:1011800043EA51514FEA1C5018BF00F5F0404FEAB6
:10119000300018BF41F000415FEA6C5C00F029802C
:1011A000BCF1FF3F08BF40F080407047130C06BF02
:1011B00012044FF0100C4FF0000C130E04BF12027B
:1011C0000CF1080C130F04BF12010CF1040C930F67
:1011D00004BF92000CF1020CD30F04BF52000CF1BB
:1011E000010C11464FF00002A0F11F00A0EB0C0013
:1011F000704711F0004F08BF704731F000413FF4D5
:10120000D5AF0B0C06BF09044FF0100C4FF0000CCB
:101210000B0E04BF09020CF1080C0B0F04BF0901EF
:101220000CF1040C8B0F04BF89000CF1020CCB0FE6
:1012300004BF49000CF1010CCCF12003A0EB0C0021
:1012400022FA03F302FA0CF241EA030100F1010071
:10125000704720F07F4C80EA030023F07F47ACEB1F
:10126000070303F57C5300F0004003F1FF032DE971
:1012700080494FEA154B09B44FEA144325EA0B4E57
:1012800024EA03480FF2042606EB132749083E78A8
:101290005FEA320203FB0667C7F5000707FB06F6A5
:1012A0004FEA54374FEAD64606F1020607FB066CB2
:1012B000CCF1005C4FEA1C472CEA074C07FB06F414
:1012C0000CFB06F504EB15464FEA961634BF0020DA
:1012D0004FF000404FEAD13706FB07FC4FEA1C4CA9
:1012E0000CFB0BF7D21B03FB0CF761EB07010CFBAC
:1012F0000EF7B0EB074072EB17420CFB08F734BF58
:10130000A2EB0742B2EB074261EB17414FEA0C44F4
:101310004FEA910706FB07FC4FEA1C4C0CFB0BF74E
:10132000B0EBC74072EB573203FB0CF734BFA2EBB4
:10133000C742B2EBC74261EB57310CFB0EF7B0EB83
:10134000C70072EB57720CFB08F734BFA2EBC70261
:10135000B2EBC70261EB5771039F4FEA816141EA2B
:10136000921104EBCC044FEAD1374FEA826206FBBC
:1013700007FC42EA90124FEA80604FEA1C4C0CFBDB
:101380000BF7D21B03FB0CF761EB07010CFB0EF70D
:10139000B0EB074072EB17420CFB08F734BFA2EB2F
:1013A0000742B2EB074261EB17414FEA8C554FEA17
:1013B000910704EB9C2406FB07FC4FEA1C4C0CFB3A
:1013C0000BF7B0EBC74072EB573203FB0CF734BF9F
:1013D000A2EBC742B2EBC74261EB57310CFB0EF7F1
:1013E000B0EBC70072EB57720CFB08F734BFA2EBEF
:1013F000C702B2EBC70261EB577115EB4C254FEA00
:10140000816141EA92114FEA82624FEAD13742EAA2
:10141000901206FB07FC44F100044FEA80604FEA9B
:101420001C4C0CFB0BF7D21B03FB0CF761EB070109
:101430000CFB0EF7B0EB074072EB17420CFB08F702
:1014400034BFA2EB0742B2EB074261EB174115EB49
:101450001C154FEA813141EA92414FEA823242EA59
:1014600090424FEA80304FEA0C7644F1000448EA9B
:1014700003434EEA0B484FF0000EB2EB080C71EB41
:10148000030724BF624639464EEB0E0E4FF0000BA9
:101490000018524149414BEB0B0BB2EB080C71EBBE
:1014A00003077BF1000B24BF624639464EEB0E0E5C
:1014B0004FF0000B0018524149414BEB0B0BB2EBC4
:1014C000080C71EB03077BF1000B24BF6246394621
:1014D0004EEB0E0E51EA020718BF46F0010616EB5E
:1014E0000E7655F1000254F1000103D5BDE88901E3
:1014F000BDE80088BDE88901BDE80048B619524141
:1015000041EB0101A3F10103704780807F7E7D7C68
:101510007B7A7978777676757473727171706F6E85
:101520006E6D6C6C6B6A6A69686867666665646430
:10153000636362616160605F5F5E5E5D5D5C5C5BBA
:101540005B5A5A5959585857575656555555545429
:10155000535352525251515050504F4F4F4E4E4D87
:101560004D4D4C4C4C4B4B4B4A4A4A4949494848D3
:101570004847474747464646454545444444444313
:1015800043434342424242414141002B26D477002B
:1015900021D01CB54FEA370703B44FF010004FF0CD
:1015A00010014FF000000FBCBDE810400BF1010B23
:1015B000BBF1010F08BF5FEA170722BF12F101025A
:1015C00011F101014FF0004143F1000300F0004030
:1015D00043EA00007047F9D35708DAE746EA0646BF
:1015E00013F1400F4FEA16461FDD13F1200FDFBF46
:1015F00016430A46002120335B42C8D0C3F12007BE
:1016000046EA064602FA07F74FEA164646EA070692
:10161000C3F1200722FA03F201FA07F721FA03F1D6
:101620004FF0000342EA0702B1E746EA020646EA43
:1016300006464FEA164646EA0106BCBF46EA06469B
:10164000360C4FF000034FF000024FF000019EE710
:101650002DE9C048934630B491E8380007C831EA14
:10166000400C48BF34EA430C03D5FFF7F2FDFFF707
:101670008CFFF0BCBDE800882DE9C048934630B42B
:1016800091E8380007C810F0804F08BF13F0804F72
:1016900003D100F005F8FFF778FFF0BCBDE8008843
:1016A00020F07F4780EA030023F07F4C07EB0C0318
:1016B000A3F57C5300F00040A3F1FE0392F0000F6D
:1016C00000F0B38095F0000F00F077802DE901491C
:1016D0004FEA11404FEA144621EA004800FB06FC9D
:1016E00024EA064708FB06F607FB08F800FB07F7A5
:1016F00018EB06484CEB164C4FEA124B18EB074818
:101700004FEA15464CEB174022EA0B4E0BFB06FC4A
:1017100025EA06470EFB06F607FB0EFE0BFB07F756
:101720001EEB064E4CEB164C4FF000061EEB074E20
:101730004CEB174B18EB0B0840F1000018EB0E0BAD
:1017400058EB000840F100008F1A4FF000013CBF39
:10175000C943661B14BFB5EB040C00213CBFC94351
:10176000F61B4FEA17444EEA8E0E27EA04454FEA6D
:101770001C4704FB07622CEA074C05FB07F70CFB30
:1017800005F604FB0CFC16EB074642EB174216EB82
:101790000C4642EB1C421BEB060658EB0202414191
:1017A00046EA9E0601D5BDE80189B619524141EBD2
:1017B0000101A3F10103BDE801894FEA14454FEA95
:1017C000114724EA054621EA074C05FB07F406FB0E
:1017D00007F70CFB06F105FB0CFC11EB074144EB92
:1017E00017444FEA124711EB0C4144EB1C4422EA28
:1017F000074C05FB07F206FB07F70CFB06F605FB9B
:101800000CFC16EB074642EB174216EB0C4642EB7C
:101810001C456A1854F1000148BF7047B61952417F
:1018200041EB0101A3F10103704795F0000F37D0A0
:101830004FEA11424FEA144721EA024624EA074CD4
:1018400002FB07F106FB07F70CFB06F402FB0CFC9E
:1018500014EB074441EB17414FEA154714EB0C44D6
:1018600041EB1C4125EA074C02FB07F506FB07F795
:101870000CFB06F602FB0CFC16EB074645EB174586
:1018800016EB0C4645EB1C42121951F1000148BF02
:101890007047B619524141EB0101A3F101037047B2
:1018A0004FEA14454FEA114724EA054621EA074C5E
:1018B00005FB07F106FB07F70CFB06F24FF00006ED
:1018C00005FB0CFC12EB074241EB174112EB0C42FB
:1018D00051EB1C4148BF7047921841EB0101A3F145
:1018E0000103704710B501201B4908601B49C1F86E
:1018F00084011949091D08601949086019490860DF
:101900001949C1F8A00102F09AF9012000F084FB06
:101910001649086016A002F097FBC82002F070FD7F
:1019200015A002F091FB00F0C9F8C82002F068FD94
:101930000E48016812A002F087FB00F0BFF80B48C8
:1019400001680FA002F080FB00F0B8F807480068BB
:101950000F49086010BD0000900122420080214222
:10196000808121429C01234200002342400000204C
:10197000706167652031000070616765203000008C
:101980006E5F74696D652E76616C3D2564000000A4
:101990004400002010B501F0A5FF02F073F900F03B
:1019A00039FA02F015FA02F0C7FA02F08BFB00F0E8
:1019B000F5FA10BD00BFFEE73D4909780B2974D246
:1019C000DFE801F00616202A30353A424956630016
:1019D000652803D10121364A117008E0712803D12E
:1019E0000721334A117002E00021314A11705DE095
:1019F0004FF47F4101EA00212E4A118002212C4A36
:101A0000117053E02B490988C2B21143294A118051
:101A10000321274A117049E0264988700421244A8D
:101A2000117043E0FF200521214A11703EE0FF20A4
:101A300006211F4A117039E0FF2000211C4A117055
:101A400001211D4A117031E0C1B21A4A51600821CA
:101A5000174A11702AE0174949684FF47F4202EA99
:101A600000221143134A51600921114A11701DE0EF
:101A7000104949684FF47F0202EA004211430D4ABF
:101A800051600A210A4A117010E00A4949684FF072
:101A90007F4202EA00621143064A5160022111802E
:101AA0000421034A117001E0FFE700BF00BF704747
:101AB0003D000020340000203C00002010B5FF2035
:101AC00002F0D6FAFF2002F0D3FAFF2002F0D0FA9B
:101AD00010BD70473EB500200090019002900A2191
:101AE000684600F0FBFBC5B205B93EBD002405E029
:101AF0001DF80400FFF760FF601CC4B2AC42F7DBC6
:101B000000201649087016480078012824D115488D
:101B10000088012802D0022819D109E011488078F4
:101B200028B911A001F0CEFF0120114908700FE083
:101B30000C4840680F49086008460168012000F021
:101B400081FB0C4801680CA001F0BCFF00E000BF65
:101B500000BF00200249087000BFC6E73D0000201A
:101B60003C0000203400002052657365740A0000B8
:101B700048000020400000205361766520646174B5
:101B8000613A256C640A000010B51148006838B14C
:101B900002F055F800200F49086001200E49087036
:101BA0000B48006898B90C48007880B101200B49B7
:101BB00008600B49C1F8900102F041F80020094982
:101BC000086009490870094908700949087010BD82
:101BD00018012342900122424B00002084812142BF
:101BE000000022424400002048000020490000205C
:101BF0004A0000200146134A92F90020501CC217E7
:101C000000EB12621212A0EB02220F4B93F900308C
:101C10009A4202D14FF0FF3070470C48094A92F9BE
:101C200000208154074A92F90020501CC21700EB93
:101C300012621212A0EB022252B2024B1A70002062
:101C4000EAE700004C0000204D000020C80C0020F6
:101C50002DE9F04102460025002600200023002443
:101C6000002791F803C00CF00F0591F803C00CF0A9
:101C7000100CBCF1000F03D091F802C04CEA05052E
:101C800091F800C0BCF1000F31D0146800202BE0A7
:101C90004FF0010C0CFA00F3B1F800C00CEA030697
:101CA0009E4220D183004FF00F0C0CFA03F7BC4387
:101CB00005FA03FC4CEA040491F803C0BCF1280FB8
:101CC00006D14FF0010C0CFA00FCC2F814C00AE077
:101CD00091F803C0BCF1480F05D14FF0010C0CFA8C
:101CE00000FCC2F810C0401C0828D1D31460B1F821
:101CF00000C0BCF1FF0F34DD546800202EE000F17D
:101D0000080C4FF0010808FA0CF3B1F800C00CEA17
:101D100003069E4221D183004FF00F0C0CFA03F70B
:101D2000BC4305FA03FC4CEA040491F803C0BCF17F
:101D3000280F05D100F1080C08FA0CF8C2F814803D
:101D400091F803C0BCF1480F07D100F1080C4FF027
:101D5000010808FA0CF8C2F81080401C0828CED3FD
:101D60005460BDE8F0810000F0B50A46002300246D
:101D70000021002500F00046B6F1004F02D11D4EB3
:101D8000F16901E01B4E7168C0F3034583B200F4B2
:101D90004016B6F5401F08D121F07061154E7668E7
:101DA00026F07066134F7E6012E000F48016B6F5E0
:101DB000801F06D1032606FA05F4A14341F07061A5
:101DC00006E0460D360103FA06F6B14341F07061B4
:101DD00022B1460D360103FA06F6314300F0004603
:101DE000B6F1004F02D1034EF16101E0014E716086
:101DF000F0BD0000000001400246002093680B4047
:101E00000BB1012000E00020704741617047016183
:101E10007047000008B501217C2001F053FD41F21C
:101E20000800ADF8000048208DF8030003208DF86D
:101E3000020069463E48FFF70BFF3020ADF8000076
:101E400010208DF8030003208DF802006946384801
:101E5000FFF7FEFE7F20ADF8000048208DF803005C
:101E600003208DF8020069463248FFF7F1FE4FF477
:101E70000070ADF8000004208DF8030003208DF8F9
:101E8000020069462B48FFF7E3FE4FF47C40ADF8B3
:101E9000000010208DF8030003208DF80200694631
:101EA0002448FFF7D5FE0220ADF8000010208DF881
:101EB000030003208DF8020069461F48FFF7C8FEA3
:101EC00040F60740ADF8000010208DF80300032015
:101ED0008DF8020069461948FFF7BAFE4FF4087002
:101EE000ADF8000048208DF8030003208DF80200B3
:101EF00069461248FFF7ACFE7F20ADF8000048208D
:101F00008DF8030003208DF8020069460C48FFF7A6
:101F10009FFE4FF68070ADF8000010208DF8030092
:101F200003208DF8020069460548FFF791FE08BDC1
:101F3000001001400014014000080140000C014065
:101F40000018014010B50448006820B101F077FE88
:101F500000200249086010BD1481214290012242F4
:101F600000BFFEE710B540210B48FFF74EFF01F020
:101F700095FD80210848FFF748FF052002F055FA3B
:101F800040210548FFF743FF052002F04EFA4021AB
:101F90000148FFF73AFF10BD000C014008B50121D0
:101FA000082001F08FFC4020ADF8000010208DF8D3
:101FB000030003208DF8020069460848FFF748FE39
:101FC0008020ADF8000048208DF8030003208DF834
:101FD000020069460148FFF73BFE08BD000C0140C6
:101FE00010B540210B48FFF710FF01F057FD80218D
:101FF0000848FFF70CFF052002F017FA40210548BA
:10200000FFF705FF052002F010FA40210148FFF715
:10201000FCFE10BD000C01402DE9F04106460027F2
:1020200000250AE0304600F03DF80446761C04FA2C
:1020300005F0074305F10800C5B2182DF2DD38465A
:10204000BDE8F08170B50546002401F015FD0026BD
:102050001CE040211248FFF7D8FE052002F0E5F908
:1020600040210F48FFF7D3FE052002F0DEF960069D
:10207000040E80210A48FFF7BFFE012801D144F079
:102080000104052002F0D1F9701CC6B2082EE0DB75
:1020900015B9FFF7A5FF01E0FFF764FF204670BD0B
:1020A000000C014070B50446002600BF00F060F847
:1020B000A02000F095F800F029F800BBC4F3072039
:1020C00000F08EF800F022F8B8B9E0B200F088F81D
:1020D00000F01CF878B900F04BF8A12000F080F86F
:1020E00000F014F828B90020FFF7ACFF06460025E1
:1020F00006E0012504E0012502E0012500E00125BC
:10210000012DD3D000F050F8304670BD10B500243A
:1021100001F0B2FC80211448FFF779FE40211248FB
:10212000FFF773FE052002F080F940210E48FFF70B
:102130006EFE052002F079F909E0641C0B48844228
:1021400005D340210848FFF760FE012010BD802123
:102150000548FFF751FE0028EFD140210248FFF764
:1021600054FE0020F2E70000000C0140401901007D
:1021700010B501F093FC80210A48FFF748FE40218A
:102180000848FFF744FE052002F04FF9802105487A
:10219000FFF73BFE052002F048F940210148FFF718
:1021A00034FE10BD000C014010B501F077FC802119
:1021B0000A48FFF72AFE40210848FFF728FE0520BD
:1021C00002F033F980210548FFF721FE052002F0D7
:1021D0002CF940210148FFF71AFE10BD000C014008
:1021E00070B5044601F05AFC40211548FFF70DFE7A
:1021F000002521E00120B0EBD41F04D1802110483C
:10220000FFF705FE03E080210D48FFF7FEFD6006A5
:10221000040E052002F009F940210948FFF7F7FDF7
:10222000052002F002F940210548FFF7EEFD0520E8
:1022300002F0FBF8681CC5B2082DDBDB70BD0000A6
:10224000000C014070B505460E46002409E026FA50
:1022500004F0C1B2284600F007F86D1C04F1080034
:10226000C4B2182CF3DD70BD70B504460D460026CF
:1022700000BFFFF77DFFA020FFF7B2FFFFF746FF8B
:10228000D0B9C4F30720FFF7ABFFFFF73FFF88B9D2
:10229000E0B2FFF7A5FFFFF739FF48B92846FFF77F
:1022A0009FFFFFF733FF08B9002606E0012604E090
:1022B000012602E0012600E00126012ED9D0FFF719
:1022C00073FFFA2002F0B1F8FA2002F0AEF8FA201B
:1022D00002F0ABF8FA2002F0A8F870BD70B5024623
:1022E000002400231FE01648164D95F90050465D66
:1022F0002046651C6CB216540020114D114E96F903
:102300000060A8550F4D95F90050681CC51700EBEB
:1023100015652D12A0EB05256DB20A4E3570481ECD
:1023200041B2581C43B2084890F90000054D95F998
:102330000050A84201D00029D5DC184670BD00002D
:10234000C80C00204D0000204C000020704700BF4A
:1023500000F066F8FFF718FC01F054FBFFF7F2FD00
:102360000A2300221146104600F0DAFCF0E700BF15
:10237000FEE7000008B500BF6A4600210548006876
:1023800000F010FA0A2300221146104600F0C8FCA3
:10239000F2E70000000000207047000070B5002147
:1023A00000230F22C47804B3154C246804F4E064BD
:1023B000C4F5E064210AC1F10403CA40447804FA78
:1023C00003F184781440214309010E4C0678A1558D
:1023D000047804F01F050124AC4005786D11AD00B0
:1023E00005F1E025C5F8004109E0047804F01F0577
:1023F0000124AC40044D0678761145F8264070BDA6
:102400000CED00E000E400E080E100E0024901435F
:10241000024A1160704700000000FA050CED00E070
:1024200010B52848006860B92748006848B92548B1
:102430000830006828B90020244908602449C1F800
:10244000840124480068B8B901F0F9FB01201F4954
:1024500008601F49C1F8840100201B496C310860E5
:102460000A2001F0CDFF012017496C3108600020DF
:10247000194908701949087012480838006858B995
:102480001548007840B9164800681249086001F004
:10249000CBFB0120104908700F48007888B109482B
:1024A0000838006828B101F0CAFB01200B49087008
:1024B00007E00A48007820B101F0B6FB0020074988
:1024C000087010BD10012342148121429401224260
:1024D0000080214244000020490000204A000020E2
:1024E00040000020174818481848194819481A4849
:1024F0001A481B481B481C481C481D481D481E48BC
:102500001E481F481F48204820482148214822488B
:10251000224823482348244824482548254826485B
:1025200026482748274828482848294829482A482B
:102530002A482B482B482C482C482D482D4800BFB2
:1025400070470000A0450008A4450008A845000801
:10255000AA450008AC450008AE450008B045000893
:10256000B2450008B4450008B6450008B845000863
:10257000BA450008BC450008BE450008C045000833
:10258000C2450008C4450008C6450008C845000803
:10259000CA450008CC450008CE450008D0450008D3
:1025A000D2450008D4450008D6450008D8450008A3
:1025B000DA450008DC450008DE450008E045000873
:1025C000E2450008E4450008E6450008E845000843
:1025D000EA450008EC450008EE450008F045000813
:1025E000F2450008F4450008F6450008F8450008E3
:1025F000FA450008FC4500082DE9F04105460F4664
:1026000014464FF000081A480078002803DD122015
:102610002070BDE8F0812878012808D0022807D072
:10262000032802D0042804D100E000BF00BF00BF8F
:1026300002E001202070ECE700BFFDF753FE80466A
:10264000384601F013F806460F2E05DD4046FDF72B
:102650004DFE0B202070DCE7394605F10F0000F03D
:10266000F7FF4046FDF742FE0020207000BFD0E794
:102670008100002010B500F019F800F07BFE00F09A
:10268000A3FE00F0C5FE00F04DFE00F025FE00F0B8
:102690004DFF00F071FF00F0EFFE00F015FF00F0BD
:1026A00017FC00F009F8FFF71DFF10BD00200149DD
:1026B00008807047640000207047000010B50024B7
:1026C0001A480078012830D1FDF70CFE044618485E
:1026D0000078002804DD16480078401E1449087070
:1026E00013480078F0B913480078D8B900F09AFF81
:1026F0001148007811490978884213D010480E49D2
:10270000097850F821000F49086008460068806B7E
:10271000401C096888630C480068401C0A4908602E
:10272000FDF7FCFD2046FDF7E1FD10BD8A0000200D
:10273000810000208200002084000020830000200F
:1027400090170020980000206800002070B5054612
:10275000002612480078002801DD002070BDFDF73A
:10276000C1FD06460E480468006820B10C480068A8
:1027700040680B4908603046FDF7B8FD5CB10320A6
:1027800020702581002060603F20E07300212174CB
:10279000204600F093FD2046E0E700008100002085
:1027A0006C0000202DE9F04105460E461446002736
:1027B0002878032803D001202070BDE8F081344838
:1027C0000078002802DD02202070F6E7314800780A
:1027D000002802DD0D202070EFE7FDF783FD07469E
:1027E0002889002808DD2889401E28813846FDF701
:1027F0007DFD00202070E0E72748006890F8300059
:1028000040F001002449096881F830000020224985
:10281000096881F8310020480068C685284600F024
:102820000FFD3846FDF762FD00F0C2FEFDF75AFDD0
:1028300007461948006890F8310020B1012809D0F6
:10284000022806D102E0002020700BE00E2020704C
:1028500008E000BF29461048006800F0BFFC0A20CD
:10286000207000BF00BF00200B49096881F83000CC
:102870000949096881F8310007490968C8610649B2
:10288000096808623846FDF731FD00BF95E7000092
:1028900081000020820000209000002070B50446D6
:1028A00000252078032801D0012070BDFDF71AFD16
:1028B0000546A07A60B1002301221946204600F0A7
:1028C00045FC2846FDF712FD00F072FE0020ECE703
:1028D00020894FF6FF71884207D22089401C208151
:1028E0002846FDF703FD0020DFE72846FDF7FEFC44
:1028F0003220DAE710B50B48007890B900F092FE6C
:10290000094800780949087009480749097850F8CA
:102910002100084908600846006807490860FDF77B
:10292000E8FC10BD8A000020840000208300002005
:1029300090170020980000209000002010B500247F
:10294000022000F0B5F9FDF7CDFC044600200B494C
:1029500008602046FDF7CAFC642000F0A9F9FDF7E5
:10296000C1FC044605480068054908600120054986
:1029700008702046FDF7BAFC10BD00008C00002056
:102980007800002080000020704700002DE9F04F03
:1029900085B081468A4693461C46DDE90F78129D34
:1029A00000200390FDF79EFC039023480078002848
:1029B00006DD0398FDF79AFC3C2005B0BDE8F08FDA
:1029C0001E4850F8240088BB01201C4941F824000F
:1029D0000398FDF78BFC2A464146384600F054FF29
:1029E0002B465A465146484600F0BEF804901198CE
:1029F000CDE9008002953A4620460E9B049900F0EE
:102A00003FFE064636B90E48007801280CD100F08A
:102A1000CFFD09E0FDF766FC03900020074941F86F
:102A200024000398FDF762FC3046C6E7FFE70398F1
:102A3000FDF75CFC2820C0E78100002090170020F3
:102A40008A000020704770472DE9F0470646884607
:102A500014464FF000091D480078002803DD1220BD
:102A60002070BDE8F087FDF73DFC8146FF2E03D1C5
:102A70001748006890F83260164850F826502DB973
:102A80004846FDF733FC43202070EAE7012D05D1CD
:102A90004846FDF72BFC43202070E2E7404600F05B
:102AA000E5FD07460F2F05DD4846FDF71FFC4120D9
:102AB0002070D6E7414605F14C0000F0C9FD4846BC
:102AC000FDF714FC0020207000BFCAE78100002041
:102AD0009000002090170020704700002DE9F0477B
:102AE00007460D464FF0000A002028606860FDF799
:102AF000F9FB8246FF2F03D11948006890F8327025
:102B0000184850F827402CB95046FDF7EFFB4320FA
:102B1000BDE8F087012C04D15046FDF7E7FB4320C8
:102B2000F6E7207C00F0010020B95046FDF7DEFBFF
:102B30004520EDE70026D4F80C90D4F808805046E4
:102B4000FDF7D4FB00E0761C58F8041B0029FAD0EE
:102B5000B0002860A9EB0600800068600020D7E77D
:102B6000900000209017002070B5044610464FF0EA
:102B700080750560051F28462C606FF00106051F53
:102B800028462E604FF01236051F28462E604FF063
:102B90000336051F28462E604FF00236051F2846D3
:102BA0002E607610051F28462E60051F28462960D6
:102BB0004FF01136051F28462E604FF01036051FC6
:102BC00028462E604FF00936051F28462E604FF02C
:102BD0000836051F28462E604FF00736051F284689
:102BE0002E604FF00636051F28462E604FF0053642
:102BF000051F28462E604FF00436051F28462E601C
:102C000070BD00002DE9F04105464FF00008FDF7CA
:102C100069FB8046FF2D05D12048006890F83250AE
:102C2000012608E01D48006890F83200A84201D152
:102C3000012600E000261A4850F825402CB94046ED
:102C4000FDF754FB4820BDE8F081012C04D140463B
:102C5000FDF74CFB4320F6E794F834701148C05D53
:102C600094F8351088430F49C8550846C05D30B9FF
:102C700094F836100C48007888430B49087094F893
:102C8000300040F0080084F830004046FDF72EFB8D
:102C9000012E01D100F08CFC0020D4E79000002030
:102CA000901700208600002085000020704700005B
:102CB00070B50546002616480078002800DD70BD76
:102CC000002D23DDFDF70EFB06461248006890F844
:102CD00034401148005D0F49096891F83510884368
:102CE0000D4908550846005D40B90A48006890F84B
:102CF00036100A480078884308490870054800687B
:102D0000C5853046FDF7F2FA00F052FC00BFD6E769
:102D10008100002090000020860000208500002017
:102D20002DE9F0470746884691461D46174800782A
:102D3000002802DD5520BDE8F0874FF47A70684323
:102D40004FF47A71B0FBF1F14FF461607843C8EB56
:102D5000081200EB8200484400EB4002C2EBC010B6
:102D600001EBC004260CA4B22046FFF7A1FF09E046
:102D70004FF40040FFF79CFF4FF40040FFF798FF2F
:102D8000701E86B2002EF3DC0020D4E78100002004
:102D900070B504460025FDF7A5FA05460248046013
:102DA0002846FDF7A3FA70BDAC00002070B50026E0
:102DB00000F072F8FDF796FA064631480068401CAC
:102DC0002F4908603046FDF791FA2E480078012817
:102DD00053D12D48007820B1012804D0022809D110
:102DE00003E001250BE0002509E00125012026492B
:102DF000087004E0012500202349087000BF00BFCF
:102E000005B970BD2148046833E0FDF76BFA06464A
:102E1000E08D50B3E08D401E80B2E08528BB94F871
:102E2000300000F0370040B114F8300F20F03700C8
:102E3000207001206070303C02E0002084F83100F6
:102E400094F8300000F0080078B93434A0781049C4
:102E5000097808430E49087020780E49085C6178AB
:102E6000084314F834190B4A505464693046FDF78E
:102E70003DFA94F832001F28C7D100BFC1E7000017
:102E8000AC0000208A000020A00000209C00002050
:102E9000850000208600002010B507480088401CEF
:102EA0000549088008460088642803DB0020088064
:102EB00000F004F810BD00006400002010B50348C5
:102EC0000068FFF7EBFC0446204610BDBC00002064
:102ED000F8B54FF45071274800F01EFB40212648FA
:102EE00000F01AFB234C04F1340600250FE06420A7
:102EF0002070002084F83100E6603F2084F8200034
:102F000000212120015534343436681C85B20F2D40
:102F1000EDDB64202070002084F83100E0603F2069
:102F200084F8200000212120015500201349086069
:102F3000134908801020134908800E481249086080
:102F40000120FFF703FC114908600020FFF7FEFB9A
:102F50000F4908606A460FA10C480068FFF74CFB58
:102F60006A460FA10A480068FFF746FB00F01EF80A
:102F7000F8BD00000C2100204C260020B4000020E9
:102F8000B2000020B0000020C0000020B8000020E7
:102F9000BC0000204F532D546D724C6F636B0000CA
:102FA0004F532D546D7253696700000000B587B010
:102FB0000320002180220A4BCDE90132CDE9031024
:102FC0004FF6FD701D23074A00900748FFF7DEFC0F
:102FD00006AA06A11D20FFF737FD07B000BD0000BF
:102FE0004C240020482600207D30000875432F4FD8
:102FF000532D494920546D720000000070B50B46F6
:10300000032580F83150012B05D1154EC56936686E
:10301000354445610CE085692DB9114EC5693668A6
:103020003544456104E00E4E856936683544456196
:10303000057D05F007040B4D05EBC4010D682DB9A6
:1030400008600025C56001258D8006E00A680860DB
:10305000C26010618D886D1C8D800025056170BD7A
:10306000B40000204C26002008B56A460021024822
:103070000068FFF797FB08BDB800002008B500BF47
:103080006A46002119480068FFF78CFBFFF7ECFF48
:1030900017480068401C164908600846007800F090
:1030A0000708144800EBC8073C681AE0E6681049B6
:1030B00060690968884213D1656815B12046A16826
:1030C000A847204600F018F894F83000022804D1F0
:1030D00001212046FFF792FF02E0022084F8310030
:1030E0003446002CE2D100F029F8C9E7BC000020EA
:1030F000B40000204C26002030B5057D05F0070403
:103100000D4D05EBC4031D68854205D1C1681960EA
:1031100039B100250D6104E00169C268CA6002B1DD
:103120001161012580F831500025C56005619D8839
:103130006D1E9D8030BD00004C26002010B5024859
:103140000068FFF7ABFB10BDB80000202DE9F04F81
:1031500005460F4690469946A87A1C490E5C05F133
:103160000B00805D11F800B00BEBC60000F0FF0A09
:10317000174850F82A400020243460812760207BC3
:1031800020EA0800207384F80D90207B243C00F096
:10319000080068B994F836000E49097808430D49CB
:1031A00008700D48805D94F8351008430A49885529
:1031B0002946204600F012F8206A20B12046216AF4
:1031C00000F021F8E5615046BDE8F08FFE450008AB
:1031D00090170020850000208600002010B590F890
:1031E000342001F10B039B5C90F83540A34301F1BF
:1031F0000B04A35423469B5C23B98B7A90F836408A
:10320000A3438B7210BDF0B5024612F8344F957887
:103210005678343A0B4618680FE000F10B073F5D13
:10322000B74300F10B0C0CF8047067463F5D17B90B
:10323000877AAF4387721B1D18680028EDD1F0BD57
:1032400010B51B4A1268D061194A126892F83430DE
:1032500000F10B02D25C164B1B6893F835301A4311
:10326000134B1B6893F8344000F10B031A55827A14
:103270000F4B1B6893F836301A4382720C4A12685F
:1032800092F834100B4A525C094B1B6893F83530A6
:103290009A43084B5A541A46525C42B9044A12687F
:1032A00092F83630044A12789A43034B1A7010BDD4
:1032B00090000020860000208500002000238372FB
:1032C00000F10B01002204E0002301F8013B531C34
:1032D000DAB2042AF8DB704770B58C210F4800F091
:1032E0001BF90E4C04F11C0600250AE0002020709A
:1032F00066603F20A0720021E1721C341C36681CFD
:1033000085B2042DF2DB0020207060603F20A072A7
:103310000021E17201480249086070BD04130020D9
:103320007000002030B54FF4A071104800F0F4F8A0
:103330000E4B03F1200500240AE0002018705D60A8
:103340003F20D8730021197420332035601C84B2CB
:10335000092CF2DB0020187058603F20D873002140
:10336000197402480249086030BD0000C4110020F1
:103370006C00002000200A4908600A4908700A49C8
:1033800008700A4908700A4908700A4908600A4921
:1033900008600A4908600A4908600A4908707047CD
:1033A000AC00002081000020820000208B00002063
:1033B0008A000020680000208C0000207C00002093
:1033C000780000208000002000220B4B1A700B496F
:1033D000002004E0002201F8012B421CD0B2042896
:1033E000F8DB0022064B1A70064B1A70064B1A6067
:1033F000064B1A6070470000850000208600002000
:10340000830000208400002098000020900000200D
:1034100030B54FF4FD61144800F07EF88021134868
:1034200000F07AF8104B03F15C0500240AE05D61BE
:103430003F2083F84C0000214D20C1545C335C35A3
:10344000601CC4B2152CF2D3002058613F2083F8D1
:103450004C0000214D20C15400200549086002485D
:103460000449086030BD00001018002090170020AB
:103470009C0000209400002000B587B003200021AC
:1034800080220A4BCDE90132CDE903104FF6FF70DF
:103490001F23074A00900748FFF778FA06AA06A1FB
:1034A0001F20FFF7D1FA07B000BD000090150020E3
:1034B0008C170020A137000875432F4F532D494921
:1034C0002049646C6500000000B587B0032000212E
:1034D00080220A4BCDE90132CDE903104FF6FE7090
:1034E0001E23074A00900748FFF750FA06AA06A1D4
:1034F0001E20FFF7A9FA07B000BD000090130020BE
:103500008C150020C537000875432F4F532D4949AE
:10351000205374617400000004E0002200F8012BC5
:103520004A1E91B20029F8DC7047000070B5B42142
:103530000F48FFF7F1FF0E4C00250DE0681C00EB73
:10354000C0000B4901EB800060603F202075002126
:1035500061752434681C85B2042DEFDB00206060A7
:103560003F2020750021617501480249086070BD47
:10357000F81F0020A400002070B560210A48FFF762
:10358000CBFF094C04F11806002504E0266018342E
:103590001836681C85B2032DF8DB00202060024835
:1035A0000249086070BD0000AC200020A800002087
:1035B00010B50024FCF796FE044613480078F0B9D5
:1035C00012480078D8B900F02DF811480078114958
:1035D0000978884213D010480D49097850F8210025
:1035E0000E49086008460068806B401C09688863C3
:1035F0000B480068401C0A490860FCF78AFE204618
:10360000FCF774FE10BD0000810000208200002045
:1036100084000020830000209017002098000020E4
:10362000680000200649074A1278885C0649095C50
:10363000034A515C01EBC001044A1170704700005D
:10364000FE45000885000020860000208400002040
:103650000246002005E011F8013B02F8013B431C43
:10366000D8B20B78002BF6D11370704701460020BA
:1036700002E0491C421CD0B20A78002AF9D17047F6
:103680002DE9F84F05460E4617469846DDE90BAB87
:10369000DDF8289000200090FCF724FE00903A48C6
:1036A0000468002C6BD0183454F8040C36490860B8
:1036B0000098FCF71BFE44F8186CA57600202076D5
:1036C0006076E08244F814AC44F80C9C44F8107C1A
:1036D00024F808BC24F8068CE077E810207705F081
:1036E0000700E076217F01208840A077E17E01205D
:1036F0008840607700206060A0602061E060206208
:10370000A0626062E06220633F2084F83400183CCD
:1037100000214D2001552046FFF736F92046FFF7DE
:1037200091F9FCF7DFFD0090184840F82540184853
:10373000006860610020A0611548006810B114485D
:1037400000688461124804603434A0781149097813
:1037500008431049087020780F49085C61780843D5
:1037600014F834190C4A50540C480078401C0B498A
:1037700008700098FCF7BAFD0020BDE8F88F0098AB
:10378000FCF7B4FD4220F8E79400002090170020D9
:103790009C00002085000020860000208B00002077
:1037A000002400BFFCF79EFD044605480068401C4D
:1037B000034908602046FCF799FDFFF744F9F1E75B
:1037C0008C000020002402E0C820FFF771FA1A489C
:1037D00000780028F8D0194800686421B0FBF1F0A7
:1037E000164908600846006828B900201449087086
:1037F000FF20FFF707FA00BFFCF774FD04461148ED
:1038000000681149086000200E4908602046FCF756
:103810006DFD0D48006809490968B0FBF1F0C0F181
:10382000640007490870FFF757F900F00FF86420AB
:10383000FFF73EFAE0E7000080000020780000205B
:10384000740000208C0000207C0000207CB5002546
:1038500014E069462846FFF741F9064666B909486B
:1038600050F8254044B1012C06D0D4E9020100EB08
:10387000810060640198A064681CC5B21F2DE8DD5A
:103880007CBD00009017002002F0010343B102F05C
:1038900002032BB102E0491E002308C00029FAD11F
:1038A0007047000029B1064AD2690243044BDA612D
:1038B00004E0034AD2698243014BDA617047000099
:1038C0000010024029B1064A92690243044B9A61F2
:1038D00004E0034A92698243014B9A6170470000F9
:1038E0000010024010B500F0FFF910BD30B5002106
:1038F0000022002400232D4D6D6805F00C0121B13C
:10390000042905D0082923D105E0294D056022E0CE
:10391000274D05601FE0254D6D6805F47012234D9D
:103920006D6805F48034022505EB92421CB9214DE7
:10393000554305600BE01D4D6D6805F400351DB164
:103940001C4D5543056002E0194D5543056002E0EA
:10395000174D056000BF00BF144D6D6805F0F00104
:103960000909154D6B5C0568DD4045600F4D6D68BC
:1039700005F4E061090A104D6B5C4568DD40856027
:103980000A4D6D6805F46051C90A0B4D6B5C4568C2
:10399000DD40C560054D6D6805F44041890B074D5C
:1039A0006B5CC568B5FBF3F5056130BD00100240E6
:1039B00000127A0000093D00500000206000002045
:1039C0000C480078002813DD0A480078401E094999
:1039D00008700846007858B907480088002807DDB5
:1039E0000020054908800120044908700449087036
:1039F000704700001C0000204E0000201D00002029
:103A00003000002010B51048006818B10F48007849
:103A1000012817D101200E4908600E49C1F8900114
:103A200000F00DF900200C490860084908700B49A6
:103A300008700B4908700B4801680BA000F004FBEC
:103A4000FEF73CF810BD000014012342480000209E
:103A500084812142000022424400002049000020CD
:103A60004A000020400000206E5F74696D652E766C
:103A7000616C3D256400000008B58020ADF80000B1
:103A800048208DF8030003208DF8020069460248A3
:103A9000FEF7DEF808BD0000000C014008B58020EC
:103AA000ADF8000010208DF8030003208DF802000F
:103AB00069460248FEF7CCF808BD0000000C014042
:103AC000704700000FB408B503A800900648009A9C
:103AD0000299FCF759FC00200090034800F006F81A
:103AE00001B05DF814FB0000C510002010B50446BD
:103AF0000DE020780A2806D10D2000F05BFB0A209B
:103B000000F058FB02E0207800F054FB641C2078A1
:103B10000028EED110BD10B500F002F810BD000075
:103B20000CB50020019000903348006840F48030CC
:103B30003149086000BF3048006800F40030009050
:103B40000198401C0190009818B90198B0F5A06F39
:103B5000F1D12948006800F4003010B10120009034
:103B600001E0002000900098012843D1234800681C
:103B700040F01000214908600846006820F003006A
:103B800008600846006840F0020008601A48406873
:103B9000194948600846406848600846406840F453
:103BA000806048600846406820F47C104860084601
:103BB000406840F4E81048600846006840F08070B3
:103BC000086000BF0C48006800F000700028F9D0C1
:103BD0000948406820F003000749486008464068EB
:103BE00040F00200486000BF0348406800F00C004D
:103BF0000828F9D10CBD000000100240002002404E
:103C000000BF0848007820B1002006490870FDF781
:103C100061FFFEF79BFB0A23002211461046FFF7C7
:103C20007FF8EEE73000002010B501221146900722
:103C300000F017F90121880700F0BEF810BD10B59B
:103C400000220121880700F00CF900214FF080408C
:103C500000F0B2F810BD000010B5FFF7B1FEFCF7A0
:103C600041FB044606480078401C05490870204680
:103C7000FCF73CFBFFF79AF8FEF720FD10BD0000B3
:103C80008100002070B586B001A8FFF72FFE4FF429
:103C90007A710298B0FBF1F42146481EB0F1807FA2
:103CA00000D31BE0481E4FF0E022506150170F2256
:103CB000002804DB13071D0E094B1D5406E01307F3
:103CC0001E0E084B00F00F052D1F5E5500BF002093
:103CD0004FF0E02290610720106100BF06B070BD78
:103CE00000E400E018ED00E010B51348006840F073
:103CF00001001149086008464068104908400E4913
:103D00004860084600680E4908400B4908600846AC
:103D1000006820F4802008600846406820F4FE0017
:103D200048604FF41F008860FFF7F5FE4FF0006019
:103D30000449086010BD0000001002400000FFF8B8
:103D4000FFFFF6FE08ED00E010B50121880700F046
:103D500077F890B10948006820B108480068401E13
:103D6000064908600548016805A000F06DF9FDF7F7
:103D7000A5FE0121880700F019F810BD44000020BD
:103D80006E5F74696D652E76616C3D256400000080
:103D900010B50121044800F053F818B10121024880
:103DA00000F007F810BD000000080040CA4302827E
:103DB0007047CA430282704721B1028842F0010273
:103DC000028004E002884FF6FE731A4002807047BA
:103DD0001FB5002401210846FFF764FD174800685D
:103DE00042F6E061B0FBF1F0401E84B2481EADF82F
:103DF0000800ADF804400020ADF80A00ADF8060058
:103E000001A94FF0804000F035F81C208DF800002B
:103E100000208DF801008DF8020001208DF80300CC
:103E20006846FEF7BBFA00220121880700F019F866
:103E300000214FF08040FFF7BFFF1FBD08000020AA
:103E400030B50246002000230024158A05EA01034C
:103E5000958905EA010413B10CB1012000E00020AE
:103E600030BD1AB183890B43838102E083898B4380
:103E700083817047002202881D4B98420ED01D4B53
:103E800098420BD0B0F1804F08D01B4B984205D020
:103E90001A4B984202D01A4B984204D14FF68F73B6
:103EA0001A404B881A43174B984207D0164B98423A
:103EB00004D04FF6FF431A40CB881A4302808B8808
:103EC00083850B8803850A4B98420BD0094B984297
:103ED00008D00E4B984205D00D4B984202D00D4BA6
:103EE000984201D10B7A0386012383827047000038
:103EF000002C014000340140000400400008004054
:103F0000000C004000100040001400400040014040
:103F1000004401400048014010B540F225510548D9
:103F200000F08DF920B140F22551024800F05FF910
:103F300010BD0000004C004000B587B001210520F5
:103F4000FFF7C0FC01218803FFF7BCFC4FF40070B1
:103F5000ADF8180018208DF81B0003208DF81A000A
:103F600006A92148FDF774FE4FF48060ADF81800F3
:103F700004208DF81B0006A91B48FDF769FE4FF4CD
:103F8000165002900020ADF80C00ADF80E00ADF810
:103F90001000ADF814000C20ADF8120002A913486F
:103FA00000F09CF94021114800F018F901210F4858
:103FB00000F02CF9012240F225510C4800F069F97B
:103FC0004FF4E060FEF722FA25208DF8040000206F
:103FD0008DF805008DF8060001208DF8070001A876
:103FE000FEF7DCF907B000BD0008014000380140D1
:103FF00010B540F225510F4800F021F9C0B114204E
:104000000D49087000200D4908700A4800F0D2F9E7
:104010000B49087008460078FDF7ECFD0948008858
:10402000401C0849088040F22551024800F0DFF8A2
:1040300010BD0000003801401C0000201D000020C1
:10404000040000204E0000200FB408B503A8009023
:104050000648009A0299FCF797F90020009003485F
:1040600000F01AF801B05DF814FB0000C60F002044
:1040700010B504462146074800F0A1F900BF4021D1
:10408000044800F0CFF80028F9D04021014800F0A2
:10409000A5F810BD0038014010B504460DE02078A9
:1040A0000A2806D10D20FFF7E3FF0A20FFF7E0FF03
:1040B00002E02078FFF7DCFF641C20780028EED1B6
:1040C00010BD000000B587B001212120FFF7FAFBE9
:1040D00001218804FFF7E6FB01212B48FDF744FE90
:1040E0004FF48070ADF8180018208DF81B000320E5
:1040F0008DF81A0006A92548FDF7AAFD4FF40070B7
:10410000ADF8180004208DF81B0006A91F48FDF724
:104110009FFD00211E4800F079F84FF4E130029035
:104120000020ADF80C00ADF80E00ADF81000ADF8B1
:1041300014000C20ADF8120002A9154800F0CEF8CA
:104140004021134800F04AF80121114800F05EF8C0
:10415000012240F225510E4800F09BF84FF4E06038
:10416000FEF754F927208DF8040002208DF8050091
:1041700000208DF8060001208DF8070001A8FEF749
:104180000DF907B000BD000030001400001401401C
:104190000048004010B540F22551054800F04FF8A6
:1041A00020B140F22551024800F021F810BD000076
:1041B0000048004010B504462146074800F0FFF8CB
:1041C00000BF4021044800F02DF80028F9D040211C
:1041D000014800F003F810BD0048004001F40072EF
:1041E000B2F5007F00D100BFCA430280704710B50E
:1041F0000022002340F66A14A14200D100BF0A1237
:1042000001249440A3B2DC43048010BD21B1828913
:1042100042F40052828104E082894DF6FF731A4015
:104220008281704702460020B1F5007F00D100BFB7
:1042300013880B400BB1012000E00020704770B5DF
:104240000246002400230025002040F66A16B142F1
:1042500000D100BFC1F3421501F01F03012606FA89
:1042600003F3012D02D19689334006E0022D02D1DD
:10427000168A334001E0968A33400C12012606FA72
:1042800004F41688344013B10CB1012000E0002082
:1042900070BDF0B50346002400260025002040F63E
:1042A0006A17B94200D100BF1846C1F3421401F0A9
:1042B0001F06012707FA06F5012C01D10C3004E096
:1042C000022C01D1103000E014301AB107682F43DE
:1042D000076002E00768AF430760F0BD2DE9F047D3
:1042E00086B005460E460024A24600BFA146002720
:1042F000B08900B100BF2F462C8A4CF6FF700440F5
:10430000F08804432C82AC894EF6F3100440B08848
:1043100031890843718908430443AC81AC8A4FF664
:10432000FF400440B0890443AC8201A8FFF7DEFAE5
:104330001F48874202D1DDF810A001E0DDF80CA093
:10434000A88900F4004040B10AEBCA0000EB0A1053
:1043500031684900B0FBF1F807E00AEBCA0000EB56
:104360000A1031688900B0FBF1F86420B8FBF0F066
:1043700004012009642101FB1089A88900F4004090
:1043800040B1322000EBC900B0FBF1F000F00700B3
:10439000044308E0322000EB09106421B0FBF1F087
:1043A00000F00F0004432C8106B0BDE8F087000048
:1043B0000038014001468888C0F308007047C1F307
:1043C00008028280704700BFFEE7490050EAC12022
:1043D00018BF04204A0D18BF40F0010040F2FF72E0
:1043E000B2EB515F08BF40F00200012808BF052072
:1043F000704730380A2801D20120704700207047EA
:1044000010B504460BE0FA2000F00FF8FA2000F097
:104410000CF8FA2000F009F8FA2000F006F8201E47
:10442000A4F10101CCB2EED110BD06E0062100BF1F
:104430000A1EA1F10103D9B2FAD1021EA0F10103B3
:10444000D8B2F3D17047000000B587B0FBF734FF56
:10445000FEF710F9FDF79EFAFEF770FA0020FEF75E
:1044600075F925490860FDF73DFA032000214FF456
:104470008072224BCDE90132CDE9031005200346BD
:104480001F4A00901F48FEF781FA06AA1EA10520C8
:10449000FEF7DAFA032000214FF480721D4BCDE9BC
:1044A0000132CDE90310062003461B4A00901B4849
:1044B000FEF76CFA06AA1AA10620FEF7C5FA032039
:1044C00000214FF48072194BCDE90132CDE9031080
:1044D00007200346164A00901648FEF757FA06AA28
:1044E00015A10720FEF7B0FA0020FEF751FCFEF7F9
:1044F00001FA002007B000BD00000020C800002025
:10450000C4040020013C00085369676E616C54616B
:10451000736B0000C8040020C40800207523000845
:104520004D6F646275735461736B0000C80800209E
:10453000C40C00204F2300084D61696E5461736BF9
:104540000000000010B500290AD00878002807D024
:1045500005487844FCF7C4FD002801D0002010BDB8
:104560000248784410BD0000A60200009E02000030
:1045700010B500290AD00878002807D005487844EB
:10458000FCF7AEFD002801D0002010BD02487844A1
:1045900010BD0000960200008E020000FCF731BB47
:1045A00001000000785634120A00100001002000BB
:1045B000400101001C0014000200050010001F0053
:1045C00001000100050010002400B40001000400F7
:1045D00001000400180004000100040001000100B3
:1045E00001008000010016001000010080000100A1
:1045F000010020005C00E80301001E018A0F00009A
:10460000010002000100030001000200010004009B
:10461000010002000100030001000200010005008A
:10462000010002000100030001000200010004007B
:104630000100020001000300010002000100060069
:10464000010002000100030001000200010004005B
:10465000010002000100030001000200010005004A
:10466000010002000100030001000200010004003B
:104670000100020001000300010002000100070028
:10468000010002000100030001000200010004001B
:10469000010002000100030001000200010005000A
:1046A00001000200010003000100020001000400FB
:1046B00001000200010003000100020001000600E9
:1046C00001000200010003000100020001000400DB
:1046D00001000200010003000100020001000500CA
:1046E00001000200010003000100020001000400BB
:1046F00001000200010003000100020001000000AF
:10470000000000000000000030313233343536370D
:104710003839414243444546403058003031323305
:104720003435363738396162636465664030780005
:10473000040000080000000000000002000100006A
:104740001000000002400000000000A00000000077
:1047500005400000000000C8000000000C40000000
:104760000000409C00000000194000000020BCBE7A
:104770000000000034400000BFC91B8E0000000490
:10478000B5400000504BCFD06607E2CF01000000DB
:104790006C4100003E8251AADFEEA7340100000008
:1047A000D9420000DCB5A0E23A301F97FFFFFFFFBF
:1047B000B4450000FD25A0C8E9A3C14FFFFFFFFFDE
:1047C000FF3F00000000008000000000FF3F0000ED
:1047D00000000080000000002449000800000020C4
:1047E000C40000006C010008E8490008C400002073
:1047F0002C2C0000880100081C0000004300000071
:10480000F8FFFFFF0C0000000E0000000F0000008A
:104810002E0000001001000043000000F8FFFFFF21
:1048200000404040404040404040414141414140C3
:104830004040404040404040404040404040404078
:104840004005020202020202020202020202020207
:10485000022020202020202020202002020202020C
:104860000202909090909090101010101010101064
:104870001010101010101010101010100202020270
:1048800002028888888888880808080808080808B4
:1048900008080808080808080808080802020202B0
:1048A00040000000000000000000000000000000C8
:1048B00000000000000000000000000000000000F8
:1048C00000000000000000000000000000000000E8
:1048D00000000000000000000000000000000000D8
:1048E00000000000000000000000000000000000C8
:1048F00000000000000000000000000000000000B8
:1049000000000000000000000000000000000000A7
:104910000000000000000000000000000000000097
:1049200000000000000000000000000000A24A0497
:10493000000000000000000001020304060708094F
:104940000000010000000000000000000000000066
:104950000000000000000000000000000000000057
:104960000000000000000000000000000000000047
:104970000000000000000000010203040102030423
:1049800006070809020406080000000000000000F5
:104990000000000000000000000000000000000017
:1049A0000000000000000000000000000000000007
:1049B00000000000000000000000000000000000F7
:1049C00000000000000000000000000000000000E7
:1049D00000000000000000000000000000000000D7
:0849E0000000000000000000CF
:0400000508000131BD
:00000001FF
