:020000040800F2
:10000000B82A0020CD010008F1050008B505000858
:10001000C905000867030008C51D000800000000AE
:10002000000000000000000000000000ED1A0008C1
:100030006B030008000000007B020008E91B0008B9
:10004000E7010008E7010008E7010008E7010008F0
:10005000E7010008E7010008E7010008E7010008E0
:10006000E7010008E7010008E7010008E7010008D0
:10007000E7010008E7010008E7010008E7010008C0
:10008000E7010008E7010008E7010008E7010008B0
:10009000E7010008E7010008E7010008E7010008A0
:1000A000E7010008E7010008E7010008E701000890
:1000B000E7010008E7010008E7010008E701000880
:1000C000E7010008E7010008E7010008E701000870
:1000D000E7010008D91C0008E7010008E701000853
:1000E000E7010008E7010008E7010008E701000850
:1000F000E7010008E7010008E7010008E701000840
:10010000E7010008E7010008E7010008E70100082F
:10011000E7010008E7010008E7010008E70100081F
:10012000E7010008E7010008E7010008E70100080F
:1001300000F002F800F03AF80AA090E8000C8244BF
:100140008344AAF10107DA4501D100F02FF8AFF29C
:10015000090EBAE80F0013F0010F18BFFB1A43F0A5
:1001600001031847BC1E0000DC1E0000103A24BF2B
:1001700078C878C1FAD8520724BF30C830C144BF0C
:1001800004680C607047000000230024002500264E
:10019000103A28BF78C1FBD8520728BF30C148BFEA
:1001A0000B6070471FB51FBD10B510BD00F099F86A
:1001B0001146FFF7F7FF01F007FE00F0B7F803B4B0
:1001C000FFF7F2FF03BC00F0BFF8000009488047CA
:1001D00009480047FEE7FEE7FEE7FEE7FEE7FEE729
:1001E000FEE7FEE7FEE7FEE704480549054A064B41
:1001F00070470000791C000831010008B824002075
:10020000B82A0020B8260020B826002072B6704711
:1002100062B67047EFF3108072B6704780F31088B3
:100220007047B0FA80F0704790FAA0F0704730BF86
:10023000704720BF70470000EFF3108072B6704720
:1002400080F3108870471D484FF0FF0101700020B7
:1002500080F309881A48012101701A484FF0805133
:10026000016062B6FEE717484FF0805101607047A9
:1002700014484FF080510160704772B6EFF3098067
:1002800028B1203880E8F00F0F490968086000B5F0
:100290000E4880475DF804EB0D480E490A7802705D
:1002A00009480D490A680260106890E8F00F203094
:1002B00080F309884EF0040E62B6704722ED00E02C
:1002C0005200002004ED00E058000020BD0D0008A1
:1002D0004B0000204C000020600000207047704759
:1002E0007047754600F02CF8AE4605006946534647
:1002F00020F00700854618B020B5FFF775FFBDE870
:1003000020404FF000064FF000074FF000084FF07C
:10031000000B21F00701AC46ACE8C009ACE8C0090D
:10032000ACE8C009ACE8C0098D46704710B504467A
:10033000AFF300802046BDE81040FFF740BF00004B
:10034000004870475824002001491820ABBEFEE742
:1003500026000200704710B501F03CFB01F05AFC8A
:1003600000F090F810BD00BFFEE770472DE9F041A6
:10037000024600250026002000230024002791F8D3
:1003800003C00CF00F0591F803C00CF0100CBCF189
:10039000000F03D091F802C04CEA050591F800C0A7
:1003A000BCF1000F31D0146800202BE04FF0010C9D
:1003B0000CFA00F3B1F800C00CEA03069E4220D10B
:1003C00083004FF00F0C0CFA03F7BC4305FA03FC53
:1003D0004CEA040491F803C0BCF1280F06D14FF099
:1003E000010C0CFA00FCC2F814C00AE091F803C03A
:1003F000BCF1480F05D14FF0010C0CFA00FCC2F81B
:1004000010C0401C0828D1D31460B1F800C0BCF162
:10041000FF0F34DD546800202EE000F1080C4FF08F
:10042000010808FA0CF3B1F800C00CEA03069E427A
:1004300021D183004FF00F0C0CFA03F7BC4305FAEF
:1004400003FC4CEA040491F803C0BCF1280F05D169
:1004500000F1080C08FA0CF8C2F8148091F803C0F7
:10046000BCF1480F07D100F1080C4FF0010808FA61
:100470000CF8C2F81080401C0828CED35460BDE8A8
:10048000F081000008B501217C2001F093FA41F2CF
:100490000800ADF8000048208DF8030003208DF817
:1004A000020069463E48FFF761FF2020ADF80000DA
:1004B00010208DF8030003208DF8020069463848AB
:1004C000FFF754FF7F20ADF8000048208DF80300AF
:1004D00003208DF8020069463248FFF747FF4FF4CA
:1004E0000070ADF8000004208DF8030003208DF8A3
:1004F000020069462B48FFF739FF4FF47C40ADF806
:10050000000010208DF8030003208DF802006946DA
:100510002448FFF72BFF0220ADF8000010208DF8D3
:10052000030003208DF8020069461F48FFF71EFFF5
:1005300040F60740ADF8000010208DF803000320BE
:100540008DF8020069461948FFF710FF4FF4087054
:10055000ADF8000048208DF8030003208DF802005C
:1005600069461248FFF702FF7F20ADF800004820DF
:100570008DF8030003208DF8020069460C48FFF750
:10058000F5FE4FF68070ADF8000010208DF80300E6
:1005900003208DF8020069460548FFF7E7FE08BD15
:1005A000001001400014014000080140000C01400F
:1005B0000018014000BFFEE700BF0A2300221146D9
:1005C000104600F035FCF8E700BFFEE708B500BFB5
:1005D0006A4600210548006800F06CF90A230022F1
:1005E0001146104600F024FCF2E700000000002055
:1005F00070470000174818481848194819481A4801
:100600001A481B481B481C481C481D481D481E48CA
:100610001E481F481F48204820482148214822489A
:10062000224823482348244824482548254826486A
:1006300026482748274828482848294829482A483A
:100640002A482B482B482C482C482D482D4800BFC1
:1006500070470000C01E0008C41E0008C81E000825
:10066000CA1E0008CC1E0008CE1E0008D01E0008BE
:10067000D21E0008D41E0008D61E0008D81E00088E
:10068000DA1E0008DC1E0008DE1E0008E01E00085E
:10069000E21E0008E41E0008E61E0008E81E00082E
:1006A000EA1E0008EC1E0008EE1E0008F01E0008FE
:1006B000F21E0008F41E0008F61E0008F81E0008CE
:1006C000FA1E0008FC1E0008FE1E0008001F00089D
:1006D000021F0008041F0008061F0008081F00086A
:1006E0000A1F00080C1F00080E1F0008101F00083A
:1006F000121F0008141F0008161F0008181F00080A
:100700001A1F00081C1F00082DE9F04105460F467E
:1007100014464FF000081A480078002803DD122024
:100720002070BDE8F0812878012808D0022807D081
:10073000032802D0042804D100E000BF00BF00BF9E
:1007400002E001202070ECE700BFFFF775FD804656
:10075000384601F013F806460F2E05DD4046FFF738
:100760006FFD0B202070DCE7394605F10F0000F02B
:10077000F7FF4046FFF764FD0020207000BFD0E780
:100780004900002010B500F019F800F07BFE00F0E1
:10079000A3FE00F0C5FE00F04DFE00F025FE00F0C7
:1007A0004DFF00F071FF00F0EFFE00F015FF00F0CC
:1007B00017FC00F009F8FFF71DFF10BD00200149EC
:1007C000088070472E0000207047000010B50024FC
:1007D0001A480078012830D1FFF72EFD044618484A
:1007E0000078002804DD16480078401E144908707F
:1007F00013480078F0B913480078D8B900F09AFF90
:100800001148007811490978884213D010480E49E0
:10081000097850F821000F49086008460068806B8D
:10082000401C096888630C480068401C0A4908603D
:10083000FFF71EFD2046FFF703FD10BD520000200C
:10084000490000204A0000204C0000204B000020FE
:100850005C150020600000203000002070B50546C7
:10086000002612480078002801DD002070BDFFF747
:10087000E3FC06460E480468006820B10C48006896
:1008800040680B4908603046FFF7DAFC5CB1032092
:1008900020702581002060603F20E07300212174DA
:1008A000204600F093FD2046E0E7000049000020CC
:1008B000340000202DE9F04105460E46144600277D
:1008C0002878032803D001202070BDE8F081344847
:1008D0000078002802DD02202070F6E73148007819
:1008E000002802DD0D202070EFE7FFF7A5FC07468A
:1008F0002889002808DD2889401E28813846FFF70E
:100900009FFC00202070E0E72748006890F8300046
:1009100040F001002449096881F830000020224994
:10092000096881F8310020480068C685284600F033
:100930000FFD3846FFF784FC00F0C2FEFFF77CFC99
:1009400007461948006890F8310020B1012809D005
:10095000022806D102E0002020700BE00E2020705B
:1009600008E000BF29461048006800F0BFFC0A20DC
:10097000207000BF00BF00200B49096881F83000DB
:100980000949096881F8310007490968C8610649C1
:10099000096808623846FFF753FC00BF95E700007E
:1009A000490000204A0000205800002070B504468D
:1009B00000252078032801D0012070BDFFF73CFC02
:1009C0000546A07A60B1002301221946204600F0B6
:1009D00045FC2846FFF734FC00F072FE0020ECE7EF
:1009E00020894FF6FF71884207D22089401C208160
:1009F0002846FFF725FC0020DFE72846FFF720FC0C
:100A00003220DAE710B50B48007890B900F092FE7A
:100A1000094800780949087009480749097850F8D9
:100A20002100084908600846006807490860FFF788
:100A30000AFC10BD520000204C0000204B0000209A
:100A40005C150020600000205800002010B5002434
:100A5000022000F0B5F9FFF7EFFB044600200B4938
:100A600008602046FFF7ECFB642000F0A9F9FFF7CF
:100A7000E3FB044605480068054908600120054974
:100A800008702046FFF7DCFB10BD0000540000207A
:100A90004000002048000020704700002DE9F04F82
:100AA00085B081468A4693461C46DDE90F78129D43
:100AB00000200390FFF7C0FB039023480078002834
:100AC00006DD0398FFF7BCFB3C2005B0BDE8F08FC6
:100AD0001E4850F8240088BB01201C4941F824001E
:100AE0000398FFF7ADFB2A464146384600F054FF15
:100AF0002B465A465146484600F0BEF804901198DD
:100B0000CDE9008002953A4620460E9B049900F0FC
:100B10003FFE064636B90E48007801280CD100F099
:100B2000CFFD09E0FFF788FB03900020074941F85B
:100B300024000398FFF784FB3046C6E7FFE70398DD
:100B4000FFF77EFB2820C0E7490000205C1500204D
:100B500052000020704770472DE9F047064688464E
:100B600014464FF000091D480078002803DD1220CC
:100B70002070BDE8F087FFF75FFB8146FF2E03D1B1
:100B80001748006890F83260164850F826502DB982
:100B90004846FFF755FB43202070EAE7012D05D1B9
:100BA0004846FFF74DFB43202070E2E7404600F047
:100BB000E5FD07460F2F05DD4846FFF741FB4120C5
:100BC0002070D6E7414605F14C0000F0C9FD4846CB
:100BD000FFF736FB0020207000BFCAE74900002065
:100BE000580000205C150020704700002DE9F047F8
:100BF00007460D464FF0000A002028606860FFF7A6
:100C00001BFB8246FF2F03D11948006890F8327011
:100C1000184850F827402CB95046FFF711FB4320E5
:100C2000BDE8F087012C04D15046FFF709FB4320B3
:100C3000F6E7207C00F0010020B95046FFF700FBEA
:100C40004520EDE70026D4F80C90D4F808805046F3
:100C5000FFF7F6FA00E0761C58F8041B0029FAD0DA
:100C6000B0002860A9EB0600800068600020D7E78C
:100C7000580000205C15002070B5044610464FF067
:100C800080750560051F28462C606FF00106051F62
:100C900028462E604FF01236051F28462E604FF072
:100CA0000336051F28462E604FF00236051F2846E2
:100CB0002E607610051F28462E60051F28462960E5
:100CC0004FF01136051F28462E604FF01036051FD5
:100CD00028462E604FF00936051F28462E604FF03B
:100CE0000836051F28462E604FF00736051F284698
:100CF0002E604FF00636051F28462E604FF0053651
:100D0000051F28462E604FF00436051F28462E602A
:100D100070BD00002DE9F04105464FF00008FFF7D7
:100D20008BFA8046FF2D05D12048006890F832509C
:100D3000012608E01D48006890F83200A84201D161
:100D4000012600E000261A4850F825402CB94046FC
:100D5000FFF776FA4820BDE8F081012C04D1404627
:100D6000FFF76EFA4320F6E794F834701148C05D3F
:100D700094F8351088430F49C8550846C05D30B90E
:100D800094F836100C48007888430B49087094F8A2
:100D9000300040F0080084F830004046FFF750FA79
:100DA000012E01D100F08CFC0020D4E75800002077
:100DB0005C1500204E0000204D0000207047000010
:100DC00070B50546002616480078002800DD70BD85
:100DD000002D23DDFFF730FA06461248006890F830
:100DE00034401148005D0F49096891F83510884377
:100DF0000D4908550846005D40B90A48006890F85A
:100E000036100A4800788843084908700548006889
:100E1000C5853046FFF714FA00F052FC00BFD6E754
:100E200049000020580000204E0000204D00002006
:100E30002DE9F0470746884691461D461748007839
:100E4000002802DD5520BDE8F0874FF47A70684332
:100E50004FF47A71B0FBF1F14FF461607843C8EB65
:100E6000081200EB8200484400EB4002C2EBC010C5
:100E700001EBC004260CA4B22046FFF7A1FF09E055
:100E80004FF40040FFF79CFF4FF40040FFF798FF3E
:100E9000701E86B2002EF3DC0020D4E7490000204B
:100EA00070B504460025FFF7C7F9054602480460FF
:100EB0002846FFF7C5F970BD7400002070B5002604
:100EC00000F072F8FFF7B8F9064631480068401C98
:100ED0002F4908603046FFF7B3F92E480078012803
:100EE00053D12D48007820B1012804D0022809D11F
:100EF00003E001250BE0002509E00125012026493A
:100F0000087004E0012500202349087000BF00BFDD
:100F100005B970BD2148046833E0FFF78DF9064636
:100F2000E08D50B3E08D401E80B2E08528BB94F880
:100F3000300000F0370040B114F8300F20F03700D7
:100F4000207001206070303C02E0002084F8310005
:100F500094F8300000F0080078B93434A0781049D3
:100F6000097808430E49087020780E49085C6178BA
:100F7000084314F834190B4A505464693046FFF79B
:100F80005FF994F832001F28C7D100BFC1E7000005
:100F9000740000205200002068000020640000203F
:100FA0004D0000204E00002010B507480088401C6E
:100FB0000549088008460088642803DB0020088073
:100FC00000F004F810BD00002E00002010B503480A
:100FD0000068FFF7EBFC0446204610BD84000020AB
:100FE000F8B54FF45071274800F01EFB4021264809
:100FF00000F01AFB234C04F1340600250FE06420B6
:101000002070002084F83100E6603F2084F8200042
:1010100000212120015534343436681C85B20F2D4F
:10102000EDDB64202070002084F83100E0603F2078
:1010300084F8200000212120015500201349086078
:10104000134908801020134908800E48124908608F
:101050000120FFF703FC114908600020FFF7FEFBA9
:101060000F4908606A460FA10C480068FFF74CFB67
:101070006A460FA10A480068FFF746FB00F01EF819
:10108000F8BD0000D81E0020182400207C0000209D
:101090007A000020780000208800002080000020D6
:1010A000840000204F532D546D724C6F636B000011
:1010B0004F532D546D7253696700000000B587B01F
:1010C0000320002180220A4BCDE90132CDE9031033
:1010D0004FF6FD701D23074A00900748FFF7DEFC1E
:1010E00006AA06A11D20FFF737FD07B000BD0000CE
:1010F00018220020142400208D11000875432F4F62
:10110000532D494920546D720000000070B50B4604
:10111000032580F83150012B05D1154EC56936687D
:10112000354445610CE085692DB9114EC5693668B5
:101130003544456104E00E4E8569366835444561A5
:10114000057D05F007040B4D05EBC4010D682DB9B5
:1011500008600025C56001258D8006E00A680860EA
:10116000C26010618D886D1C8D800025056170BD89
:101170007C0000201824002008B56A46002102489F
:101180000068FFF797FB08BD8000002008B500BF8E
:101190006A46002119480068FFF78CFBFFF7ECFF57
:1011A00017480068401C164908600846007800F09F
:1011B0000708144800EBC8073C681AE0E6681049C5
:1011C00060690968884213D1656815B12046A16835
:1011D000A847204600F018F894F83000022804D1FF
:1011E00001212046FFF792FF02E0022084F831003F
:1011F0003446002CE2D100F029F8C9E78400002031
:101200007C0000201824002030B5057D05F007047F
:101210000D4D05EBC4031D68854205D1C1681960F9
:1012200039B100250D6104E00169C268CA6002B1EC
:101230001161012580F831500025C56005619D8848
:101240006D1E9D8030BD00001824002010B502489E
:101250000068FFF7ABFB10BD800000202DE9F04FC8
:1012600005460F4690469946A87A1C490E5C05F142
:101270000B00805D11F800B00BEBC60000F0FF0A18
:10128000174850F82A400020243460812760207BD2
:1012900020EA0800207384F80D90207B243C00F0A5
:1012A000080068B994F836000E49097808430D49DA
:1012B00008700D48805D94F8351008430A49885538
:1012C0002946204600F012F8206A20B12046216A03
:1012D00000F021F8E5615046BDE8F08F1E1F0008C0
:1012E0005C1500204D0000204E00002010B590F845
:1012F000342001F10B039B5C90F83540A34301F1CE
:101300000B04A35423469B5C23B98B7A90F8364098
:10131000A3438B7210BDF0B5024612F8344F957896
:101320005678343A0B4618680FE000F10B073F5D22
:10133000B74300F10B0C0CF8047067463F5D17B91A
:10134000877AAF4387721B1D18680028EDD1F0BD66
:1013500010B51B4A1268D061194A126892F83430ED
:1013600000F10B02D25C164B1B6893F835301A4320
:10137000134B1B6893F8344000F10B031A55827A23
:101380000F4B1B6893F836301A4382720C4A12686E
:1013900092F834100B4A525C094B1B6893F83530B5
:1013A0009A43084B5A541A46525C42B9044A12688E
:1013B00092F83630044A12789A43034B1A7010BDE3
:1013C000580000204E0000204D00002000238372B2
:1013D00000F10B01002204E0002301F8013B531C43
:1013E000DAB2042AF8DB704770B58C210F4800F0A0
:1013F0001BF90E4C04F11C0600250AE000202070A9
:1014000066603F20A0720021E1721C341C36681C0B
:1014100085B2042DF2DB0020207060603F20A072B6
:101420000021E17201480249086070BDD01000201F
:101430003800002030B54FF4A071104800F0F4F8E7
:101440000E4B03F1200500240AE0002018705D60B7
:101450003F20D8730021197420332035601C84B2DA
:10146000092CF2DB0020187058603F20D87300214F
:10147000197402480249086030BD0000900F002036
:101480003400002000200A4908600A4908700A490F
:1014900008700A4908700A4908700A4908600A4930
:1014A00008600A4908600A4908600A4908707047DC
:1014B00074000020490000204A0000205300002052
:1014C0005200002030000020540000204400002082
:1014D000400000204800002000220B4B1A700B49EE
:1014E000002004E0002201F8012B421CD0B20428A5
:1014F000F8DB0022064B1A70064B1A70064B1A6076
:10150000064B1A60704700004D0000204E0000207E
:101510004B0000204C0000206000002058000020FC
:1015200030B54FF4FD61144800F07EF88021134877
:1015300000F07AF8104B03F15C0500240AE05D61CD
:101540003F2083F84C0000214D20C1545C335C35B2
:10155000601CC4B2152CF2D3002058613F2083F8E0
:101560004C0000214D20C15400200549086002486C
:101570000449086030BD0000DC1500205C15002027
:10158000640000205C00002000B587B0032000212B
:1015900080220A4BCDE90132CDE903104FF6FF70EE
:1015A0001F23074A00900748FFF778FA06AA06A10A
:1015B0001F20FFF7D1FA07B000BD00005C13002028
:1015C00058150020B118000875432F4F532D494975
:1015D0002049646C6500000000B587B0032000213D
:1015E00080220A4BCDE90132CDE903104FF6FE709F
:1015F0001E23074A00900748FFF750FA06AA06A1E3
:101600001E20FFF7A9FA07B000BD00005C11002002
:1016100058130020D518000875432F4F532D494902
:10162000205374617400000004E0002200F8012BD4
:101630004A1E91B20029F8DC7047000070B5B42151
:101640000F48FFF7F1FF0E4C00250DE0681C00EB82
:10165000C0000B4901EB800060603F202075002135
:1016600061752434681C85B2042DEFDB00206060B6
:101670003F2020750021617501480249086070BD56
:10168000C41D00206C00002070B560210A48FFF7DF
:10169000CBFF094C04F11806002504E0266018343D
:1016A0001836681C85B2032DF8DB00202060024844
:1016B0000249086070BD0000781E00207000002004
:1016C00010B50024FEF7B8FD044613480078F0B9C1
:1016D00012480078D8B900F02DF811480078114967
:1016E0000978884213D010480D49097850F8210034
:1016F0000E49086008460068806B401C09688863D2
:101700000B480068401C0A490860FEF7ACFD204603
:10171000FEF796FD10BD0000490000204A000020A1
:101720004C0000204B0000205C15002060000020D1
:10173000300000200649074A1278885C0649095C97
:10174000034A515C01EBC001044A1170704700006C
:101750001E1F00084D0000204E0000204C000020FD
:101760000246002005E011F8013B02F8013B431C52
:10177000D8B20B78002BF6D11370704701460020C9
:1017800002E0491C421CD0B20A78002AF9D1704705
:101790002DE9F84F05460E4617469846DDE90BAB96
:1017A000DDF8289000200090FEF746FD00903A48B2
:1017B0000468002C6BD0183454F8040C36490860C7
:1017C0000098FEF73DFD44F8186CA57600202076C1
:1017D0006076E08244F814AC44F80C9C44F8107C29
:1017E00024F808BC24F8068CE077E810207705F090
:1017F0000700E076217F01208840A077E17E01206C
:101800008840607700206060A0602061E060206216
:10181000A0626062E06220633F2084F83400183CDC
:1018200000214D2001552046FFF736F92046FFF7ED
:1018300091F9FEF701FD0090184840F8254018483E
:10184000006860610020A0611548006810B114486C
:1018500000688461124804603434A0781149097822
:1018600008431049087020780F49085C61780843E4
:1018700014F834190C4A50540C480078401C0B4999
:1018800008700098FEF7DCFC0020BDE8F88F009897
:10189000FEF7D6FC4220F8E75C0000205C15002033
:1018A000640000204D0000204E0000205300002066
:1018B000002400BFFEF7C0FC044605480068401C39
:1018C000034908602046FEF7BBFCFFF744F9F1E747
:1018D00054000020002402E0C820FFF771FA1A48E3
:1018E00000780028F8D0194800686421B0FBF1F0B6
:1018F000164908600846006828B900201449087095
:10190000FF20FFF707FA00BFFEF796FC04461148D8
:1019100000681149086000200E4908602046FEF763
:101920008FFC0D48006809490968B0FBF1F0C0F16F
:10193000640007490870FFF757F900F00FF86420BA
:10194000FFF73EFAE0E700004800002040000020DA
:101950003C00002054000020440000207CB50025FD
:1019600014E069462846FFF741F9064666B909487A
:1019700050F8254044B1012C06D0D4E9020100EB17
:10198000810060640198A064681CC5B21F2DE8DD69
:101990007CBD00005C15002002F0010343B102F0A1
:1019A00002032BB102E0491E002308C00029FAD12E
:1019B0007047000029B1064A92690243044B9A61BC
:1019C00004E0034A92698243014B9A617047000028
:1019D0000010024010B500F04FF910BD30B50021E5
:1019E0000022002400232D4D6D6805F00C0121B16B
:1019F000042905D0082923D105E0294D056022E0FE
:101A0000274D05601FE0254D6D6805F47012234DCC
:101A10006D6805F48034022505EB92421CB9214D16
:101A2000554305600BE01D4D6D6805F400351DB193
:101A30001C4D5543056002E0194D5543056002E019
:101A4000174D056000BF00BF144D6D6805F0F00133
:101A50000909154D6B5C0568DD4045600F4D6D68EB
:101A600005F4E061090A104D6B5C4568DD40856056
:101A70000A4D6D6805F46051C90A0B4D6B5C4568F1
:101A8000DD40C560054D6D6805F44041890B074D8B
:101A90006B5CC568B5FBF3F5056130BD0010024015
:101AA00000127A0000093D001900002029000020E2
:101AB0000B480078002811DD09480078401E0849CD
:101AC00008700846007848B906480078002805DD07
:101AD0000020044908700120034908707047000085
:101AE000040000201800002005000020704710B5F9
:101AF00000F002F810BD00000CB50020019000902D
:101B00003348006840F480303149086000BF3048F5
:101B1000006800F4003000900198401C019000988B
:101B200018B90198B0F5A06FF1D12948006800F408
:101B3000003010B10120009001E0002000900098DA
:101B4000012843D12348006840F010002149086073
:101B50000846006820F0030008600846006840F06E
:101B6000020008601A484068194948600846406801
:101B700048600846406840F4806048600846406815
:101B800020F47C1048600846406840F4E810486043
:101B90000846006840F08070086000BF0C4800688C
:101BA00000F000700028F9D00948406820F00300D8
:101BB000074948600846406840F00200486000BF9E
:101BC0000348406800F00C000828F9D10CBD000063
:101BD000001002400020024000BF002301221946ED
:101BE0001846FFF725F9F8E710B5FFF761FFFEF794
:101BF00023FB044606480078401C0549087020462F
:101C0000FEF71EFBFFF75AF9FEF7E0FD10BD0000DE
:101C10004900002070B586B001A8FFF7DFFE4FF441
:101C20007A710298B0FBF1F42146481EB0F1807F32
:101C300000D31BE0481E4FF0E022506150170F22E6
:101C4000002804DB13071D0E094B1D5406E0130783
:101C50001E0E084B00F00F052D1F5E5500BF002023
:101C60004FF0E02290610720106100BF06B070BD08
:101C700000E400E018ED00E010B51348006840F003
:101C800001001149086008464068104908400E49A3
:101C90004860084600680E4908400B49086008463D
:101CA000006820F4802008600846406820F4FE00A8
:101CB00048604FF41F008860FFF719FF4FF0006085
:101CC0000449086010BD0000001002400000FFF849
:101CD000FFFFF6FE08ED00E010B540F22551144874
:101CE00000F041F810B31420124908700020124986
:101CF00008700F4800F061F81049114A12788854B2
:101D00000F480078FF2804DA0D480078401C0C4981
:101D100008700B480078042803DD0A480068FEF7C5
:101D200045FE40F22551024800F00EF810BD0000BB
:101D30000038014004000020050000208F0D002025
:101D4000180000200000002010B50022002340F6FB
:101D50006A14A14200D100BF0A1201249440A3B228
:101D6000DC43048010BD70B502460024002300252A
:101D7000002040F66A16B14200D100BFC1F34215FF
:101D800001F01F03012606FA03F3012D02D1968903
:101D9000334006E0022D02D1168A334001E0968AD4
:101DA00033400C12012606FA04F41688344013B1AD
:101DB0000CB1012000E0002070BD01468888C0F30E
:101DC0000800704700BFFEE700B587B0FEF71EFAB7
:101DD000FEF7D8FCFEF7BFFAFEF738FE0020FEF74C
:101DE0003DFD24490860032000214FF48072224BFE
:101DF000CDE90132CDE90310052003461F4A0090CA
:101E00001F48FEF74BFE06AA1EA10520FEF7A4FE02
:101E1000032000214FF480721D4BCDE90132CDE942
:101E20000310062003461B4A00901B48FEF736FEAF
:101E300006AA1AA10620FEF78FFE032000214FF408
:101E40008072194BCDE90132CDE90310072003461A
:101E5000164A00901648FEF721FE06AA15A1072093
:101E6000FEF77AFE0020FFF71BF8FEF7CBFD0020FF
:101E700007B000BD00000020900000208C0400206E
:101E8000D91B00085369676E616C5461736B000065
:101E9000900400208C080020CD0500084D6F64627E
:101EA00075735461736B0000900800208C0C002047
:101EB000B90500084D61696E5461736B0000000044
:101EC00001000000785634120A00100001002000C2
:101ED000400101001C0014000200050010001F005A
:101EE00001000100050010002400B40001000400FE
:101EF00001000400180004000100040001000100BA
:101F000001008000010016001000010080000100A7
:101F1000010020005C00E80301001E018A0F0000A0
:101F200001000200010003000100020001000400A2
:101F30000100020001000300010002000100050091
:101F40000100020001000300010002000100040082
:101F50000100020001000300010002000100060070
:101F60000100020001000300010002000100040062
:101F70000100020001000300010002000100050051
:101F80000100020001000300010002000100040042
:101F9000010002000100030001000200010007002F
:101FA0000100020001000300010002000100040022
:101FB0000100020001000300010002000100050011
:101FC0000100020001000300010002000100040002
:101FD00001000200010003000100020001000600F0
:101FE00001000200010003000100020001000400E2
:101FF00001000200010003000100020001000500D1
:1020000001000200010003000100020001000400C1
:1020100001000200010003000100020001000000B5
:1020200040200008000000208C0000006C01000827
:10203000CC2000088C0000202C2A00008801000819
:10204000000000000000010000000000000000008F
:10205000000000000000000000000000000102037A
:102060000401020304060708090204060800000030
:102070000000000000000000000000000000000060
:102080000000000000000000000000000000000050
:102090000000000000000000000000000000000040
:1020A0000000000000000000000000000000000030
:1020B0000000000000000000000000000000000020
:0C20C00000000000000000000000000014
:0400000508000131BD
:00000001FF
