:020000040800F2
:10000000C82B002079020008A91E0008ED1D000879
:100010007F1E0008FD180008273B000800000000B4
:10002000000000000000000000000000573400083D
:10003000051A00080000000027030008B935000871
:10004000930200089302000893020008930200083C
:10005000930200089302000893020008930200082C
:10006000930200089302000893020008930200081C
:10007000930200089302000893020008930200080C
:1000800093020008930200089302000893020008FC
:1000900093020008930200089302000893020008EC
:1000A00093020008930200089302000893020008DC
:1000B000A936000893020008C13600089302000820
:1000C00093020008930200089302000893020008BC
:1000D00093020008D537000893020008F53800089D
:1000E000930200089302000893020008930200089C
:1000F000930200089302000893020008930200088C
:10010000930200089302000893020008930200087B
:1001100005370008930200089302000893020008C4
:10012000930200089302000893020008930200085B
:1001300000F002F800F090F80AA090E8000C824469
:100140008344AAF10107DA4501D100F085F8AFF246
:10015000090EBAE80F0013F0010F18BFFB1A43F0A5
:10016000010318479C3D0000BC3D0000103A24BF2D
:1001700078C878C1FAD8520724BF30C830C144BF0C
:1001800004680C607047000000230024002500264E
:10019000103A28BF78C1FBD8520728BF30C148BFEA
:1001A0000B6070476E2900F0A381702900F0E58292
:1001B000662903F08785652903F08485672903F0A4
:1001C00081856129AFF3008003681B0A28BF41F0D5
:1001D0008001692900F05081642900F04D81752962
:1001E00000F04A816F2900F07282782900F0B18214
:1001F000E92900F00D82E42900F00A82F52900F0D7
:100200000782EF2900F06F82F82900F0B0820368BE
:10021000DB0928BF41F08001632900F03286732991
:1002200000F03786E32900F04286F32900F0478684
:10023000002070471FB500F093FE0400002000214D
:1002400003F02AFD401C60600020002103F00EFD39
:10025000E0601FBD10B510BD00F055FE1146FFF760
:10026000E9FF03F07DFC00F02DFF03B4FFF7F2FF80
:1002700003BC00F075FF00000948804709480047AB
:10028000FEE7FEE7FEE7FEE7FEE7FEE7FEE7FEE746
:10029000FEE7FEE704480549054A064B70470000A3
:1002A0004936000831010008C8250020C82B00206D
:1002B000C8270020C827002072B6704762B6704772
:1002C000EFF3108072B6704780F310887047B0FA71
:1002D00080F0704790FAA0F0704730BF704720BFA1
:1002E00070470000EFF3108072B6704780F31088FB
:1002F00070471D484FF0FF010170002080F309880E
:100300001A48012101701A484FF08051016062B60D
:10031000FEE717484FF080510160704714484FF0D6
:1003200080510160704772B6EFF3098028B1203820
:1003300080E8F00F0F490968086000B50E48804753
:100340005DF804EB0D480E490A78027009480D4922
:100350000A680260106890E8F00F203080F3098886
:100360004EF0040E62B6704722ED00E066000020F9
:1003700004ED00E06C000020FD2600085F00002076
:1003800060000020740000201CB50C46064B7B4426
:1003900069460090204600F0C4F8044600206946F3
:1003A00000F0D2F820461CBDB7010000704770472E
:1003B000704770B5044685690068C10601D53026CE
:1003C00000E02026C00707D070BDD4E901213046E7
:1003D0009047206A401C20626D1EF6D570BD70B536
:1003E000044685690078C00707D170BDD4E90121B2
:1003F00020209047206A401C20626D1EF6D570BDFB
:1004000009684A0501D540B27047C905FCD500B25C
:10041000704709684A0501D5C0B27047C905FCD5C7
:1004200080B2704770B50C460546012A05D0287881
:10043000800600D5EA69002302E0012305E05B1C89
:10044000934202D2E05C0028F9D1A869E618C01AEC
:10045000A861286A184428622846FFF7AAFF04E02A
:10046000D5E9012114F8010B9047B442F8D328468E
:10047000FFF7B5FF70BD00002DE9F04106460024EE
:1004800010687529314616A510D0FFF7B9FF00286E
:1004900002DA404213A507E031688A0701D512A5A8
:1004A00002E0490704D511A5012401E0FFF7B1FFDF
:1004B00000210A2206F1240709E0B0FBF2FCB0FBA0
:1004C000F2F302FB1C00303078541846491C002817
:1004D000F3D123462A463046BDE8F04100F061BA28
:1004E000000000002D0000002B0000002000000094
:1004F00011680268006A530501D508700AE0D30547
:1005000001D5088006E0130603D5C217C1E9000231
:1005100000E008600120704701694A1C0261087808
:10052000704700B58FB0CDE9013100210591054933
:100530007944CDE903101146684600F029F90FB05F
:1005400000BD0000E5FFFFFF0A6802F8010B0A602A
:10055000704700002DE9FF5F15468A460446DFF824
:10056000AC80F8440027D8E900103E46CDE90010E1
:1005700010E03AF816106A4602A800F0A4FC411CEC
:1005800007D02178890603D5E269391891420DD840
:100590000744761C2078800602D5E069B84205DD64
:1005A000AE42E6DB3AF816000028E2D1A069C01B93
:1005B000A0612046FFF7FDFED8E90010CDE900104C
:1005C000002017E03AF818106A4602A800F07BFCF9
:1005D000B0F1FF3F81460BD000250DF1080B05E07F
:1005E000D4E901211BF8050090476D1C4D45F7D358
:1005F00008F10100B0428046E4DB206A3844206202
:100600002046FFF7ECFEBDE8FF9F0000C238000067
:100610002DE9F0418046D21D22F007020025D2E9E3
:100620000002F52915A614D0011E72F1000106DAA8
:100630000023D0EB030063EB020211A608E0D8F818
:1006400000108B0701D50FA602E0490701D50EA6C1
:1006500001251146002408F1240704E000F05CF9AC
:1006600030323A55641C50EA0102F7D12B4632462B
:1006700021464046BDE8F04100F093B9000000007B
:100680002D0000002B0000002000000030B40021ED
:1006900000F1240408E002F00705D208303542EAF0
:1006A0004372DB086554491C52EA0305F3D1046820
:1006B000002310A2250707D5A40600D421B1C469E0
:1006C00001230DA2641EC46130BC00F06AB910B5EC
:1006D000044621461068FFF79CFE02462046BDE80E
:1006E00010400023D2E7D21D22F00701D1E90023F8
:1006F000CCE700000000000030000000F0B40D4620
:100700000188090502D5214C7C4402E01F4C7C4441
:100710000E34002100F1240608E002F00F07120950
:10072000E75D42EA03721B097754491C52EA03074A
:10073000F3D102780023120704D5702D06D009B139
:10074000022311342246F0BC00F02BB901231034EF
:10075000F8E770B504460D4621461068FFF759FECC
:10076000024629462046BDE870400023C6E7D21D58
:1007700022F00703D3E90023C0E70368126843F0BF
:10078000200303600823C3610023B7E72437000078
:100790002DE9F05F894604464FF0000ADFF874B196
:1007A000FB44C0F820A02046E1688847002874D0A8
:1007B000252806D0D4E901219047206A401C2062F8
:1007C000F1E700265F462046E16888472028054675
:1007D00007DB312D05D2781910F8200C08B106433B
:1007E000F1E7B00701D526F00406C4F81CA00027E5
:1007F000C4F818A02A2D09D0284603F0AAF938B366
:1008000004EB8708303DC8F8185019E059F8041B6C
:10081000204604EB87029161E1688847012F054675
:1008200018D1E069002820DA26F020061DE0D8F86B
:10083000180000EB800005EB40003038C8F81800C5
:100840002046E1688847054603F083F90028EED189
:10085000012F0AD02E2D08D12046E16888477F1C41
:100860000546022F46F02006C4DBA069002803DA03
:10087000404246F00106A061F00701D026F01006C4
:100880006C2D0BD0682D09D04C2D39D06A2D35D068
:10089000742D35D07A2D33D016E038E0E1682F463C
:1008A00020468847B842054609D16C2F26D04FF420
:1008B0008060E168064320468847054604E06C2FC7
:1008C0001AD04FF4807006430DB3A5F141001928EA
:1008D00002D8203546F400664A462946204626605E
:1008E0004E46FFF75FFC80B101280BD0F61D26F0C5
:1008F000070000F1080956E74020E4E78020D8E728
:100900000020D6E706F104094DE7284652E7206AA1
:10091000BDE8F09FB436000030B5B0F10A024FEAEE
:10092000900E71F100034EEA817EB0EB0E0061EB98
:1009300091014FEA101E4EEA017E10EB0E0041EBD2
:1009400011114FEA102E4EEA016E10EB0E0041EB32
:1009500011214FEA104E4EEA014E10EB0E0041EB12
:100960001141401841F100014FEAD00040EA4170C6
:100970004FEAD10110EB80054FEA810444EA9074FC
:1009800044EB01046D1944EB0404521BA3414FF0E6
:10099000000348BF0A3200D530BD401C41F10001C0
:1009A00030BD2DE9F0470D4699469246044600F1C8
:1009B00024080168880604D5E06921F0100121604F
:1009C00000E00120A84201DD471B00E00027A169EB
:1009D0007A1902EB0900081AA0612078C00602D437
:1009E0002046FFF7E6FC002608E0D4E901211AF8CA
:1009F00006009047206A401C761C20624E45F4DBBE
:100A00002078C0060AD52046FFF7D3FC06E0D4E9DB
:100A1000012130209047206A401C2062381EA7F137
:100A20000107F4DC07E0D4E9012118F8050090473C
:100A3000206A401C2062281EA5F10105F3DC204637
:100A4000FFF7CDFC2078000602D50220BDE8F08734
:100A50000120FBE770472DE9FF4F0C461E464FF083
:100A6000FF378BB0D2E90001DDF860800A908A463A
:100A7000C1F30A5505B93D46002108464FF0000074
:100A8000BAF1000F00F4400005DA00EB80004FF4EB
:100A9000400101EA50004FEA9059B9F1010F00DD21
:100AA000B9460A9850EA4A000ED044F61050A5F212
:100AB000FF3545432F14B8F1000F1ED07542291E93
:100AC0001EDDC9F100021CE0B8F1010F4FF000007B
:100AD00001D0302103E0F24305E02154401CB04234
:100AE000FBDB30460022002121540B99C1F808801D
:100AF000C1E900200FB0BDE8F08FBD1B6D1CDEE723
:100B00004A4600DA694206A800F06EFA06AB93E89E
:100B1000070003AB83E8070050460A9900F027FB63
:100B20008DE80700A0F500501F3800900398002DB5
:100B300009DD42F21F014A46084403A903906846B2
:100B400000F086FD08E0A0F500504A461F3803A9D2
:100B50000390684600F090FD8DE807000004000C4B
:100B600003D04FF0FF30410800E01046B8F1000F0D
:100B700003D00022009215461EE0751E05D4FFF733
:100B8000CBFE303262556D1EF9D5B34601220843C3
:100B900002D000227F1C04E02078302801D10022FE
:100BA0007F1E002A099786D01DE0112D07DAFFF776
:100BB000B3FE303262556D1C50EA0102F5D1084394
:100BC00002D00098C8B10EE00021681E05E0235C49
:100BD000625C63542254401E491C8142F7DBAB46E1
:100BE000A81B401E0990002004F80B000B98099ADE
:100BF000C0F80880C0E9002B7CE711264FF0000800
:100C000059E72DE9F04F88460446D21D22F007012E
:100C100091B0D1E90001CDE90A0102F086FF024658
:100C20000B98C00F01D02D2007E02068810701D567
:100C30002B2002E0202101EAC000032A099001D004
:100C4000072A05DB03464146204600F08DF90BE1FB
:100C50002078800601D5E06900E00620B8F1650F34
:100C6000814606D0B8F1660F18D0B8F1670F70D181
:100C700031E00020B9F1110F009001DB112301E0F8
:100C800009F101030AAA01A90CA8FFF7E4FEDDE9B6
:100C90000C70002609F10105834647E001204B4610
:100CA00000904FF000470AAA01A90CA8FFF7D3FE55
:100CB000DDE90DB00C995D46002610B909F101007F
:100CC0000D18B9EB050003D4C0F1FF3609F1010599
:100CD000A5EB09002BE0B9F1010F01DA4FF0010992
:100CE0000020B9F1110F0090484601DD112300E00A
:100CF00003460AAA01A90CA8FFF7ADFEDDE90C70B6
:100D00004D4600268346207800070AD4AB4500DA1A
:100D10005D4601A8012D04DD411911F8011C30299F
:100D200007D04F4502DA17F1040F04DA012082469A
:100D30000FE06D1EEEE7002F02DCED1B3E4403E0EA
:100D4000781CA84200DD7D1CB81B00F1010A4FF0A1
:100D500000472078000703D4AA4501DB4FF0FF3A93
:100D60000021B7F1004F0DF143088DF8431024D056
:100D700002202B23002F01DA7F422D230A21021E9D
:100D8000A0F1010000DC5FB197FBF1FC97FBF1F2F1
:100D900001FB1C7C17460CF1300C08F801CDEEE786
:100DA000A8F1010003702188090501D5452100E063
:100DB0006521A0F1010800F8011C09980FA9A1EB19
:100DC0000807FF1D00B10120411901EBEA70A1697C
:100DD0003844081A401EA0612078C00602D420467C
:100DE000FFF7E7FA099828B1D4E901219047206A72
:100DF000401C20622078C00622D52046FFF7D9FA91
:100E00001EE0002E04DBB34502DD01A8805D00E09A
:100E10003020D4E901219047206A401C2062761CD2
:100E2000AAF101005FEA000A0AD100F099F8C0684F
:100E30000168405CD4E901219047206A401C20628F
:100E4000281EA5F10105DCDC07E0D4E9012118F832
:100E5000010B9047206A401C2062381EA7F1010751
:100E6000F3DC2046FFF7BBFA032011B043E610B5D0
:100E7000436913B1AFF3008001E0FFF7D3FA01201B
:100E800010BD127800F124010A7000224A7001227C
:100E9000EDE711684FF0FF32E9E710B5436913B190
:100EA000AFF3008001E0FFF755FB012010BD128871
:100EB00000F1240182840022C2840122EDE711683E
:100EC0004FF0FF32E9E770B516460C46054600F0D4
:100ED0003FF8036893F80101012806D0FF2C0FD8D2
:100EE000185D68B101202C7070BDD3F8070132463F
:100EF000214603F2071303442846BDE87040184713
:100F00004FF0FF3070BD754600F0E6F8AE460500C4
:100F10006946534620F00700854618B020B5FFF714
:100F2000B9F9BDE820404FF000064FF000074FF040
:100F300000084FF0000B21F00701AC46ACE8C009F7
:100F4000ACE8C009ACE8C009ACE8C0098D46704700
:100F500010B500F005F8001D10BD00BF3D2D0000CC
:100F600000487047882500202DE9F0411F460446BF
:100F700003260168072A01F4006004DB08B116A506
:100F800005E016A503E008B115A500E015A521F0C0
:100F900010002060A069C01EA0610FB1401EA061BA
:100FA0002046FFF706FA4FB1D4E9012138469047B1
:100FB000206A401C2062C01C206206E0206AFAE71A
:100FC000D4E9012115F8010B9047761EF8D220468E
:100FD000FFF705FABDE8F0814E414E006E616E00EC
:100FE000494E4600696E66002DE9F0478146164677
:100FF0008AB0334878440DC88DE80D0030487844F5
:10100000801C03AC0DC884E80D0041F69B300844F9
:10101000372190FBF1F290FBF1F5A5F1800501FB82
:1010200012041B3C02D56442012000E00020DFF8DE
:1010300090A080460027FA44AAF1BE0A0DE0E0071E
:1010400009D03246684607EB47010AEB810100F000
:1010500013FB8DE8070064107F1C002CEFD1184FA4
:101060007F44AC3F18E0E80714D007EB04100DF103
:10107000180A90E80E008AE80E00C068F04201D11C
:1010800098190890324606A903A800F0F5FA03ABB8
:1010900083E807006D10641C002DE4D132466946D8
:1010A000B8F1000F03A802D000F0D2FA01E000F07E
:1010B000E3FAC9E90001C9F808200AB0BDE8F087E1
:1010C000F02E000010B50446AFF300802046BDE8C6
:1010D0001040FFF7CAB8000000487047682500209C
:1010E0004FF0013C50F8042B51F8043B9A4221D1B7
:1010F000A2EB0C03934313EACC1317D150F8042B43
:1011000051F8043B9A4215D1A2EB0C03934313EA26
:10111000CC130BD150F8042B51F8043B9A4209D15F
:10112000A2EB0C03934313EACC13DBD04FF0000087
:10113000704700BFD01A01BAB1FA81F101F018016D
:1011400022FA01F0CB40C1F12001DBB2C0B2C01ADB
:101150002CFA01F3D11A914311EAC311E6D1704779
:1011600001491820ABBEFEE72600020070475FEA87
:10117000400C08BF91F0000F4FEA8C234FEAC122C8
:1011800043EA51514FEA1C5018BF00F5F0404FEAB6
:10119000300018BF41F000415FEA6C5C00F029802C
:1011A000BCF1FF3F08BF40F080407047130C06BF02
:1011B00012044FF0100C4FF0000C130E04BF12027B
:1011C0000CF1080C130F04BF12010CF1040C930F67
:1011D00004BF92000CF1020CD30F04BF52000CF1BB
:1011E000010C11464FF00002A0F11F00A0EB0C0013
:1011F000704711F0004F08BF704731F000413FF4D5
:10120000D5AF0B0C06BF09044FF0100C4FF0000CCB
:101210000B0E04BF09020CF1080C0B0F04BF0901EF
:101220000CF1040C8B0F04BF89000CF1020CCB0FE6
:1012300004BF49000CF1010CCCF12003A0EB0C0021
:1012400022FA03F302FA0CF241EA030100F1010071
:10125000704720F07F4C80EA030023F07F47ACEB1F
:10126000070303F57C5300F0004003F1FF032DE971
:1012700080494FEA154B09B44FEA144325EA0B4E57
:1012800024EA03480FF2042606EB132749083E78A8
:101290005FEA320203FB0667C7F5000707FB06F6A5
:1012A0004FEA54374FEAD64606F1020607FB066CB2
:1012B000CCF1005C4FEA1C472CEA074C07FB06F414
:1012C0000CFB06F504EB15464FEA961634BF0020DA
:1012D0004FF000404FEAD13706FB07FC4FEA1C4CA9
:1012E0000CFB0BF7D21B03FB0CF761EB07010CFBAC
:1012F0000EF7B0EB074072EB17420CFB08F734BF58
:10130000A2EB0742B2EB074261EB17414FEA0C44F4
:101310004FEA910706FB07FC4FEA1C4C0CFB0BF74E
:10132000B0EBC74072EB573203FB0CF734BFA2EBB4
:10133000C742B2EBC74261EB57310CFB0EF7B0EB83
:10134000C70072EB57720CFB08F734BFA2EBC70261
:10135000B2EBC70261EB5771039F4FEA816141EA2B
:10136000921104EBCC044FEAD1374FEA826206FBBC
:1013700007FC42EA90124FEA80604FEA1C4C0CFBDB
:101380000BF7D21B03FB0CF761EB07010CFB0EF70D
:10139000B0EB074072EB17420CFB08F734BFA2EB2F
:1013A0000742B2EB074261EB17414FEA8C554FEA17
:1013B000910704EB9C2406FB07FC4FEA1C4C0CFB3A
:1013C0000BF7B0EBC74072EB573203FB0CF734BF9F
:1013D000A2EBC742B2EBC74261EB57310CFB0EF7F1
:1013E000B0EBC70072EB57720CFB08F734BFA2EBEF
:1013F000C702B2EBC70261EB577115EB4C254FEA00
:10140000816141EA92114FEA82624FEAD13742EAA2
:10141000901206FB07FC44F100044FEA80604FEA9B
:101420001C4C0CFB0BF7D21B03FB0CF761EB070109
:101430000CFB0EF7B0EB074072EB17420CFB08F702
:1014400034BFA2EB0742B2EB074261EB174115EB49
:101450001C154FEA813141EA92414FEA823242EA59
:1014600090424FEA80304FEA0C7644F1000448EA9B
:1014700003434EEA0B484FF0000EB2EB080C71EB41
:10148000030724BF624639464EEB0E0E4FF0000BA9
:101490000018524149414BEB0B0BB2EB080C71EBBE
:1014A00003077BF1000B24BF624639464EEB0E0E5C
:1014B0004FF0000B0018524149414BEB0B0BB2EBC4
:1014C000080C71EB03077BF1000B24BF6246394621
:1014D0004EEB0E0E51EA020718BF46F0010616EB5E
:1014E0000E7655F1000254F1000103D5BDE88901E3
:1014F000BDE80088BDE88901BDE80048B619524141
:1015000041EB0101A3F10103704780807F7E7D7C68
:101510007B7A7978777676757473727171706F6E85
:101520006E6D6C6C6B6A6A69686867666665646430
:10153000636362616160605F5F5E5E5D5D5C5C5BBA
:101540005B5A5A5959585857575656555555545429
:10155000535352525251515050504F4F4F4E4E4D87
:101560004D4D4C4C4C4B4B4B4A4A4A4949494848D3
:101570004847474747464646454545444444444313
:1015800043434342424242414141002B26D477002B
:1015900021D01CB54FEA370703B44FF010004FF0CD
:1015A00010014FF000000FBCBDE810400BF1010B23
:1015B000BBF1010F08BF5FEA170722BF12F101025A
:1015C00011F101014FF0004143F1000300F0004030
:1015D00043EA00007047F9D35708DAE746EA0646BF
:1015E00013F1400F4FEA16461FDD13F1200FDFBF46
:1015F00016430A46002120335B42C8D0C3F12007BE
:1016000046EA064602FA07F74FEA164646EA070692
:10161000C3F1200722FA03F201FA07F721FA03F1D6
:101620004FF0000342EA0702B1E746EA020646EA43
:1016300006464FEA164646EA0106BCBF46EA06469B
:10164000360C4FF000034FF000024FF000019EE710
:101650002DE9C048934630B491E8380007C831EA14
:10166000400C48BF34EA430C03D5FFF7F2FDFFF707
:101670008CFFF0BCBDE800882DE9C048934630B42B
:1016800091E8380007C810F0804F08BF13F0804F72
:1016900003D100F005F8FFF778FFF0BCBDE8008843
:1016A00020F07F4780EA030023F07F4C07EB0C0318
:1016B000A3F57C5300F00040A3F1FE0392F0000F6D
:1016C00000F0B38095F0000F00F077802DE901491C
:1016D0004FEA11404FEA144621EA004800FB06FC9D
:1016E00024EA064708FB06F607FB08F800FB07F7A5
:1016F00018EB06484CEB164C4FEA124B18EB074818
:101700004FEA15464CEB174022EA0B4E0BFB06FC4A
:1017100025EA06470EFB06F607FB0EFE0BFB07F756
:101720001EEB064E4CEB164C4FF000061EEB074E20
:101730004CEB174B18EB0B0840F1000018EB0E0BAD
:1017400058EB000840F100008F1A4FF000013CBF39
:10175000C943661B14BFB5EB040C00213CBFC94351
:10176000F61B4FEA17444EEA8E0E27EA04454FEA6D
:101770001C4704FB07622CEA074C05FB07F70CFB30
:1017800005F604FB0CFC16EB074642EB174216EB82
:101790000C4642EB1C421BEB060658EB0202414191
:1017A00046EA9E0601D5BDE80189B619524141EBD2
:1017B0000101A3F10103BDE801894FEA14454FEA95
:1017C000114724EA054621EA074C05FB07F406FB0E
:1017D00007F70CFB06F105FB0CFC11EB074144EB92
:1017E00017444FEA124711EB0C4144EB1C4422EA28
:1017F000074C05FB07F206FB07F70CFB06F605FB9B
:101800000CFC16EB074642EB174216EB0C4642EB7C
:101810001C456A1854F1000148BF7047B61952417F
:1018200041EB0101A3F10103704795F0000F37D0A0
:101830004FEA11424FEA144721EA024624EA074CD4
:1018400002FB07F106FB07F70CFB06F402FB0CFC9E
:1018500014EB074441EB17414FEA154714EB0C44D6
:1018600041EB1C4125EA074C02FB07F506FB07F795
:101870000CFB06F602FB0CFC16EB074645EB174586
:1018800016EB0C4645EB1C42121951F1000148BF02
:101890007047B619524141EB0101A3F101037047B2
:1018A0004FEA14454FEA114724EA054621EA074C5E
:1018B00005FB07F106FB07F70CFB06F24FF00006ED
:1018C00005FB0CFC12EB074241EB174112EB0C42FB
:1018D00051EB1C4148BF7047921841EB0101A3F145
:1018E0000103704710B501F025FD01F07BFE00F00B
:1018F000E5F901F017FF01F099FF10BD00BFFEE709
:101900003D4909780B2974D2DFE801F00616202A38
:1019100030353A4249566300652803D10121364AE1
:10192000117008E0712803D10421334A117002E0DC
:101930000721314A11705DE04FF47F4101EA002137
:101940002E4A118002212C4A117053E02B4909883C
:10195000C2B21143294A11800321274A117049E07C
:10196000264988700421244A117043E0FF20052194
:10197000214A11703EE0FF2006211F4A117039E014
:10198000FF2000211C4A117001211D4A117031E015
:10199000C1B21A4A51600821174A11702AE017494A
:1019A00049684FF47F4202EA00221143134A516012
:1019B0000921114A11701DE0104949684FF47F0256
:1019C00002EA004211430D4A51600A210A4A11708D
:1019D00010E00A4949684FF07F4202EA0062114371
:1019E000064A5160022111800421034A117001E06E
:1019F000FFE700BF00BF7047290000202000002043
:101A000028000020704700003EB5002000900190A3
:101A100002900A21684600F0EBF9C5B205B93EBD57
:101A200000240AE01DF8041017A001F015FD1DF8B0
:101A30000400FFF765FF601CC4B2AC42F2DB00207B
:101A40001249087012A001F007FD12480078012821
:101A500018D111480088012802D002280DD106E0D3
:101A60000D48807810B90DA001F0F6FC06E00A4898
:101A700041680CA001F0F0FC00E000BF00BF0020B6
:101A80000449087000BFCAE725782000290000201B
:101A90000A00000028000020200000205265736525
:101AA000740A00005361766520646174613A256CA4
:101AB0000A000000704700000146134A92F9002016
:101AC000501CC21700EB12621212A0EB02220F4B45
:101AD00093F900309A4202D14FF0FF3070470C4822
:101AE000094A92F900208154074A92F90020501CBB
:101AF000C21700EB12621212A0EB022252B2024B8A
:101B00001A700020EAE700002A0000202B000020C5
:101B1000A00C00202DE9F0410246002500260020FF
:101B200000230024002791F803C00CF00F0591F862
:101B300003C00CF0100CBCF1000F03D091F802C0F0
:101B40004CEA050591F800C0BCF1000F31D01468D3
:101B500000202BE04FF0010C0CFA00F3B1F800C0AC
:101B60000CEA03069E4220D183004FF00F0C0CFAC2
:101B700003F7BC4305FA03FC4CEA040491F803C0E4
:101B8000BCF1280F06D14FF0010C0CFA00FCC2F892
:101B900014C00AE091F803C0BCF1480F05D14FF022
:101BA000010C0CFA00FCC2F810C0401C0828D1D36C
:101BB0001460B1F800C0BCF1FF0F34DD54680020A0
:101BC0002EE000F1080C4FF0010808FA0CF3B1F810
:101BD00000C00CEA03069E4221D183004FF00F0C97
:101BE0000CFA03F7BC4305FA03FC4CEA040491F831
:101BF00003C0BCF1280F05D100F1080C08FA0CF85D
:101C0000C2F8148091F803C0BCF1480F07D100F16D
:101C1000080C4FF0010808FA0CF8C2F81080401CBC
:101C20000828CED35460BDE8F0810000F0B50A4624
:101C3000002300240021002500F00046B6F1004FEB
:101C400002D11D4EF16901E01B4E7168C0F30345DE
:101C500083B200F44016B6F5401F08D121F0706140
:101C6000154E766826F07066134F7E6012E000F421
:101C70008016B6F5801F06D1032606FA05F4A143A7
:101C800041F0706106E0460D360103FA06F6B143F5
:101C900041F0706122B1460D360103FA06F6314378
:101CA00000F00046B6F1004F02D1034EF16101E0B1
:101CB000014E7160F0BD00000000014008B5012137
:101CC0007C2001F027FB41F20800ADF8000048201D
:101CD0008DF8030003208DF8020069463E48FFF7A7
:101CE00019FF2020ADF8000010208DF8030003201C
:101CF0008DF8020069463848FFF70CFF7F20ADF8E9
:101D0000000048208DF8030003208DF8020069468A
:101D10003248FFF7FFFE4FF40070ADF800000420DA
:101D20008DF8030003208DF8020069462B48FFF769
:101D3000F1FE4FF47C40ADF8000010208DF8030058
:101D400003208DF8020069462448FFF7E3FE0220D5
:101D5000ADF8000010208DF8030003208DF802007C
:101D600069461F48FFF7D6FE40F60740ADF8000071
:101D700010208DF8030003208DF8020069461948F1
:101D8000FFF7C8FE4FF40870ADF8000048208DF84A
:101D9000030003208DF8020069461248FFF7BAFEDF
:101DA0007F20ADF8000048208DF8030003208DF857
:101DB000020069460C48FFF7ADFE4FF68070ADF8A3
:101DC000000010208DF8030003208DF80200694602
:101DD0000548FFF79FFE08BD0010014000140140B8
:101DE00000080140000C01400018014000BFFEE760
:101DF00070B50246002400231FE01648164D95F9E1
:101E00000050465D2046651C6CB216540020114DF2
:101E1000114E96F90060A8550F4D95F90050681CB9
:101E2000C51700EB15652D12A0EB05256DB20A4E06
:101E30003570481E41B2581C43B2084890F9000062
:101E4000054D95F90050A84201D00029D5DC18466F
:101E500070BD0000A00C00202B0000202A000020F4
:101E6000704700BF00F064F8FFF724FE01F0F2FABB
:101E70000A2300221146104600F07AFCF2E700BF68
:101E8000FEE7000008B500BF6A460021054800686B
:101E900000F0B0F90A2300221146104600F068FC59
:101EA000F2E70000000000207047000070B500213C
:101EB00000230F22C47804B3154C246804F4E064B2
:101EC000C4F5E064210AC1F10403CA40447804FA6D
:101ED00003F184781440214309010E4C0678A15582
:101EE000047804F01F050124AC4005786D11AD00A5
:101EF00005F1E025C5F8004109E0047804F01F056C
:101F00000124AC40044D0678761145F8264070BD9A
:101F10000CED00E000E400E080E100E00249014354
:101F2000024A1160704700000000FA050CED00E065
:101F300070470000174818481848194819481A48A7
:101F40001A481B481B481C481C481D481D481E4871
:101F50001E481F481F482048204821482148224841
:101F60002248234823482448244825482548264811
:101F700026482748274828482848294829482A48E1
:101F80002A482B482B482C482C482D482D4800BF68
:101F900070470000C83C0008CC3C0008D03C00085A
:101FA000D23C0008D43C0008D63C0008D83C0008CD
:101FB000DA3C0008DC3C0008DE3C0008E03C00089D
:101FC000E23C0008E43C0008E63C0008E83C00086D
:101FD000EA3C0008EC3C0008EE3C0008F03C00083D
:101FE000F23C0008F43C0008F63C0008F83C00080D
:101FF000FA3C0008FC3C0008FE3C0008003D0008DC
:10200000023D0008043D0008063D0008083D0008A8
:102010000A3D00080C3D00080E3D0008103D000878
:10202000123D0008143D0008163D0008183D000848
:102030001A3D00081C3D00081E3D0008203D000818
:10204000223D0008243D00082DE9F04105460F46D9
:1020500014464FF000081A480078002803DD1220CB
:102060002070BDE8F0812878012808D0022807D028
:10207000032802D0042804D100E000BF00BF00BF45
:1020800002E001202070ECE700BFFEF72BF980464C
:10209000384601F013F806460F2E05DD4046FEF7E0
:1020A00025F90B202070DCE7394605F10F0000F020
:1020B000F7FF4046FEF71AF90020207000BFD0E776
:1020C0005D00002010B500F019F800F07BFE00F074
:1020D000A3FE00F0C5FE00F04DFE00F025FE00F06E
:1020E0004DFF00F071FF00F0EFFE00F015FF00F073
:1020F00017FC00F009F8FFF71DFF10BD0020014993
:1021000008807047420000207047000010B500248E
:102110001A480078012830D1FEF7E4F80446184840
:102120000078002804DD16480078401E1449087025
:1021300013480078F0B913480078D8B900F09AFF36
:102140001148007811490978884213D010480E4987
:10215000097850F821000F49086008460068806B34
:10216000401C096888630C480068401C0A490860E4
:10217000FEF7D4F82046FEF7B9F810BD660000203F
:102180005D0000205E000020600000205F00002055
:102190006C160020740000204400002070B5054635
:1021A000002612480078002801DD002070BDFEF7EF
:1021B00099F806460E480468006820B10C4800688B
:1021C00040680B4908603046FEF790F85CB1032088
:1021D00020702581002060603F20E0730021217481
:1021E000204600F093FD2046E0E700005D0000205F
:1021F000480000202DE9F04105460E461446002710
:102200002878032803D001202070BDE8F0813448ED
:102210000078002802DD02202070F6E731480078BF
:10222000002802DD0D202070EFE7FEF75BF807467F
:102230002889002808DD2889401E28813846FEF7B5
:1022400055F800202070E0E72748006890F830003B
:1022500040F001002449096881F83000002022493B
:10226000096881F8310020480068C685284600F0DA
:102270000FFD3846FEF73AF800F0C2FEFEF732F8DE
:1022800007461948006890F8310020B1012809D0AC
:10229000022806D102E0002020700BE00E20207002
:1022A00008E000BF29461048006800F0BFFC0A2083
:1022B000207000BF00BF00200B49096881F8300082
:1022C0000949096881F8310007490968C861064968
:1022D000096808623846FEF709F800BF95E7000074
:1022E0005D0000205E0000206C00002070B50446F8
:1022F00000252078032801D0012070BDFDF7F2FFF2
:102300000546A07A60B1002301221946204600F05C
:1023100045FC2846FDF7EAFF00F072FE0020ECE7DE
:1023200020894FF6FF71884207D22089401C208106
:102330002846FDF7DBFF0020DFE72846FDF7D6FF44
:102340003220DAE710B50B48007890B900F092FE21
:10235000094800780949087009480749097850F880
:102360002100084908600846006807490860FDF731
:10237000C0FF10BD66000020600000205F0000204C
:102380006C160020740000206C00002010B50024A2
:10239000022000F0B5F9FDF7A5FF044600200B4927
:1023A00008602046FDF7A2FF642000F0A9F9FDF7C0
:1023B00099FF044605480068054908600120054961
:1023C00008702046FDF792FF10BD00006800002055
:1023D000540000205C000020704700002DE9F04F01
:1023E00085B081468A4693461C46DDE90F78129DEA
:1023F00000200390FDF776FF039023480078002823
:1024000006DD0398FDF772FF3C2005B0BDE8F08FB4
:102410001E4850F8240088BB01201C4941F82400C4
:102420000398FDF763FF2A464146384600F054FF03
:102430002B465A465146484600F0BEF80490119883
:10244000CDE9008002953A4620460E9B049900F0A3
:102450003FFE064636B90E48007801280CD100F040
:10246000CFFD09E0FDF73EFF03900020074941F84A
:1024700024000398FDF73AFF3046C6E7FFE70398CC
:10248000FDF734FF2820C0E75D0000206C16002017
:1024900066000020704770472DE9F04706468846E1
:1024A00014464FF000091D480078002803DD122073
:1024B0002070BDE8F087FDF715FF8146FF2E03D1A0
:1024C0001748006890F83260164850F826502DB929
:1024D0004846FDF70BFF43202070EAE7012D05D1A8
:1024E0004846FDF703FF43202070E2E7404600F036
:1024F000E5FD07460F2F05DD4846FDF7F7FE4120B5
:102500002070D6E7414605F14C0000F0C9FD484671
:10251000FDF7ECFE0020207000BFCAE75D00002040
:102520006C0000206C160020704700002DE9F04779
:1025300007460D464FF0000A002028606860FDF74E
:10254000D1FE8246FF2F03D11948006890F83270FF
:10255000184850F827402CB95046FDF7C7FE4320D5
:10256000BDE8F087012C04D15046FDF7BFFE4320A3
:10257000F6E7207C00F0010020B95046FDF7B6FEDA
:102580004520EDE70026D4F80C90D4F8088050469A
:10259000FDF7ACFE00E0761C58F8041B0029FAD0C9
:1025A000B0002860A9EB0600800068600020D7E733
:1025B0006C0000206C16002070B5044610464FF0E9
:1025C00080750560051F28462C606FF00106051F09
:1025D00028462E604FF01236051F28462E604FF019
:1025E0000336051F28462E604FF00236051F284689
:1025F0002E607610051F28462E60051F284629608C
:102600004FF01136051F28462E604FF01036051F7B
:1026100028462E604FF00936051F28462E604FF0E1
:102620000836051F28462E604FF00736051F28463E
:102630002E604FF00636051F28462E604FF00536F7
:10264000051F28462E604FF00436051F28462E60D1
:1026500070BD00002DE9F04105464FF00008FDF780
:1026600041FE8046FF2D05D12048006890F8325089
:10267000012608E01D48006890F83200A84201D108
:10268000012600E000261A4850F825402CB94046A3
:10269000FDF72CFE4820BDE8F081012C04D1404616
:1026A000FDF724FE4320F6E794F834701148C05D2E
:1026B00094F8351088430F49C8550846C05D30B9B5
:1026C00094F836100C48007888430B49087094F849
:1026D000300040F0080084F830004046FDF706FE68
:1026E000012E01D100F08CFC0020D4E76C0000200A
:1026F0006C1600206200002061000020704700007E
:1027000070B50546002616480078002800DD70BD2B
:10271000002D23DDFDF7E6FD06461248006890F81F
:1027200034401148005D0F49096891F8351088431D
:102730000D4908550846005D40B90A48006890F800
:1027400036100A4800788843084908700548006830
:10275000C5853046FDF7CAFD00F052FC00BFD6E744
:102760005D0000206C00002062000020610000205D
:102770002DE9F0470746884691461D4617480078E0
:10278000002802DD5520BDE8F0874FF47A706843D9
:102790004FF47A71B0FBF1F14FF461607843C8EB0C
:1027A000081200EB8200484400EB4002C2EBC0106C
:1027B00001EBC004260CA4B22046FFF7A1FF09E0FC
:1027C0004FF40040FFF79CFF4FF40040FFF798FFE5
:1027D000701E86B2002EF3DC0020D4E75D000020DE
:1027E00070B504460025FDF77DFD054602480460EE
:1027F0002846FDF77BFD70BD8800002070B50026DF
:1028000000F072F8FDF76EFD064631480068401C86
:102810002F4908603046FDF769FD2E4800780128F1
:1028200053D12D48007820B1012804D0022809D1C5
:1028300003E001250BE0002509E0012501202649E0
:10284000087004E0012500202349087000BF00BF84
:1028500005B970BD2148046833E0FDF743FD064625
:10286000E08D50B3E08D401E80B2E08528BB94F827
:10287000300000F0370040B114F8300F20F037007E
:10288000207001206070303C02E0002084F83100AC
:1028900094F8300000F0080078B93434A07810497A
:1028A000097808430E49087020780E49085C617861
:1028B000084314F834190B4A505464693046FDF744
:1028C00015FD94F832001F28C7D100BFC1E70000F2
:1028D00088000020660000207C0000207800002096
:1028E000610000206200002010B507480088401CED
:1028F0000549088008460088642803DB002008801A
:1029000000F004F810BD00004200002010B503489C
:102910000068FFF7EBFC0446204610BD980000203D
:10292000F8B54FF45071274800F01EFB40212648AF
:1029300000F01AFB234C04F1340600250FE064205C
:102940002070002084F83100E6603F2084F82000E9
:1029500000212120015534343436681C85B20F2DF6
:10296000EDDB64202070002084F83100E0603F201F
:1029700084F820000021212001550020134908601F
:10298000134908801020134908800E481249086036
:102990000120FFF703FC114908600020FFF7FEFB50
:1029A0000F4908606A460FA10C480068FFF74CFB0E
:1029B0006A460FA10A480068FFF746FB00F01EF8C0
:1029C000F8BD0000E81F002028250020900000200E
:1029D0008E0000208C0000209C000020940000202D
:1029E000980000204F532D546D724C6F636B0000A4
:1029F0004F532D546D7253696700000000B587B0C6
:102A00000320002180220A4BCDE90132CDE90310D9
:102A10004FF6FD701D23074A00900748FFF7DEFCC4
:102A200006AA06A11D20FFF737FD07B000BD000074
:102A30002823002024250020CD2A000875432F4F8D
:102A4000532D494920546D720000000070B50B46AB
:102A5000032580F83150012B05D1154EC569366824
:102A6000354445610CE085692DB9114EC56936685C
:102A70003544456104E00E4E85693668354445614C
:102A8000057D05F007040B4D05EBC4010D682DB95C
:102A900008600025C56001258D8006E00A68086091
:102AA000C26010618D886D1C8D800025056170BD30
:102AB000900000202825002008B56A460021024821
:102AC0000068FFF797FB08BD9400002008B500BF21
:102AD0006A46002119480068FFF78CFBFFF7ECFFFE
:102AE00017480068401C164908600846007800F046
:102AF0000708144800EBC8073C681AE0E66810496C
:102B000060690968884213D1656815B12046A168DB
:102B1000A847204600F018F894F83000022804D1A5
:102B200001212046FFF792FF02E0022084F83100E5
:102B30003446002CE2D100F029F8C9E798000020C3
:102B4000900000202825002030B5057D05F0070401
:102B50000D4D05EBC4031D68854205D1C1681960A0
:102B600039B100250D6104E00169C268CA6002B193
:102B70001161012580F831500025C56005619D88EF
:102B80006D1E9D8030BD00002825002010B5024834
:102B90000068FFF7ABFB10BD940000202DE9F04F5B
:102BA00005460F4690469946A87A1C490E5C05F1E9
:102BB0000B00805D11F800B00BEBC60000F0FF0ABF
:102BC000174850F82A400020243460812760207B79
:102BD00020EA0800207384F80D90207B243C00F04C
:102BE000080068B994F836000E49097808430D4981
:102BF00008700D48805D94F8351008430A498855DF
:102C00002946204600F012F8206A20B12046216AA9
:102C100000F021F8E5615046BDE8F08F263D000840
:102C20006C160020610000206200002010B590F8B2
:102C3000342001F10B039B5C90F83540A34301F174
:102C40000B04A35423469B5C23B98B7A90F836403F
:102C5000A3438B7210BDF0B5024612F8344F95783D
:102C60005678343A0B4618680FE000F10B073F5DC9
:102C7000B74300F10B0C0CF8047067463F5D17B9C1
:102C8000877AAF4387721B1D18680028EDD1F0BD0D
:102C900010B51B4A1268D061194A126892F8343094
:102CA00000F10B02D25C164B1B6893F835301A43C7
:102CB000134B1B6893F8344000F10B031A55827ACA
:102CC0000F4B1B6893F836301A4382720C4A126815
:102CD00092F834100B4A525C094B1B6893F835305C
:102CE0009A43084B5A541A46525C42B9044A126835
:102CF00092F83630044A12789A43034B1A7010BD8A
:102D00006C0000206200002061000020002383721C
:102D100000F10B01002204E0002301F8013B531CE9
:102D2000DAB2042AF8DB704770B58C210F4800F046
:102D30001BF90E4C04F11C0600250AE0002020704F
:102D400066603F20A0720021E1721C341C36681CB2
:102D500085B2042DF2DB0020207060603F20A0725D
:102D60000021E17201480249086070BDE0110020B5
:102D70004C00002030B54FF4A071104800F0F4F87A
:102D80000E4B03F1200500240AE0002018705D605E
:102D90003F20D8730021197420332035601C84B281
:102DA000092CF2DB0020187058603F20D8730021F6
:102DB000197402480249086030BD0000A0100020CC
:102DC0004800002000200A4908600A4908700A49A2
:102DD00008700A4908700A4908700A4908600A49D7
:102DE00008600A4908600A4908600A490870704783
:102DF000880000205D0000205E00002067000020A9
:102E000066000020440000206800002058000020D8
:102E1000540000205C00002000220B4B1A700B496C
:102E2000002004E0002201F8012B421CD0B204284B
:102E3000F8DB0022064B1A70064B1A70064B1A601C
:102E4000064B1A60704700006100002062000020FD
:102E50005F00002060000020740000206C00002053
:102E600030B54FF4FD61144800F07EF8802113481E
:102E700000F07AF8104B03F15C0500240AE05D6174
:102E80003F2083F84C0000214D20C1545C335C3559
:102E9000601CC4B2152CF2D3002058613F2083F887
:102EA0004C0000214D20C154002005490860024813
:102EB0000449086030BD0000EC1600206C160020AC
:102EC000780000207000002000B587B003200021AA
:102ED00080220A4BCDE90132CDE903104FF6FF7095
:102EE0001F23074A00900748FFF778FA06AA06A1B1
:102EF0001F20FFF7D1FA07B000BD00006C140020BE
:102F000068160020F131000875432F4F532D4949B1
:102F10002049646C6500000000B587B003200021E3
:102F200080220A4BCDE90132CDE903104FF6FE7045
:102F30001E23074A00900748FFF750FA06AA06A189
:102F40001E20FFF7A9FA07B000BD00006C12002098
:102F5000681400201532000875432F4F532D49493E
:102F6000205374617400000004E0002200F8012B7B
:102F70004A1E91B20029F8DC7047000070B5B421F8
:102F80000F48FFF7F1FF0E4C00250DE0681C00EB29
:102F9000C0000B4901EB800060603F2020750021DC
:102FA00061752434681C85B2042DEFDB002060605D
:102FB0003F2020750021617501480249086070BDFD
:102FC000D41E00208000002070B560210A48FFF761
:102FD000CBFF094C04F11806002504E026601834E4
:102FE0001836681C85B2032DF8DB002020600248EB
:102FF0000249086070BD0000881F00208400002086
:1030000010B50024FDF76EF9044613480078F0B9B6
:1030100012480078D8B900F02DF81148007811490D
:103020000978884213D010480D49097850F82100DA
:103030000E49086008460068806B401C0968886378
:103040000B480068401C0A490860FDF762F92046F9
:10305000FDF74CF910BD00005D0000205E0000206F
:10306000600000205F0000206C160020740000202B
:10307000440000200649074A1278885C0649095C2A
:10308000034A515C01EBC001044A11707047000013
:10309000263D000861000020620000206000002042
:1030A0000246002005E011F8013B02F8013B431CF9
:1030B000D8B20B78002BF6D1137070470146002070
:1030C00002E0491C421CD0B20A78002AF9D17047AC
:1030D0002DE9F84F05460E4617469846DDE90BAB3D
:1030E000DDF8289000200090FDF7FCF800903A48A9
:1030F0000468002C6BD0183454F8040C364908606E
:103100000098FDF7F3F844F8186CA57600202076B7
:103110006076E08244F814AC44F80C9C44F8107CCF
:1031200024F808BC24F8068CE077E810207705F036
:103130000700E076217F01208840A077E17E012012
:103140008840607700206060A0602061E0602062BD
:10315000A0626062E06220633F2084F83400183C83
:1031600000214D2001552046FFF736F92046FFF794
:1031700091F9FDF7B7F80090184840F82540184835
:10318000006860610020A0611548006810B1144813
:1031900000688461124804603434A07811490978C9
:1031A00008431049087020780F49085C617808438B
:1031B00014F834190C4A50540C480078401C0B4940
:1031C00008700098FDF792F80020BDE8F88F00988D
:1031D000FDF78CF84220F8E7700000206C16002004
:1031E00078000020610000206200002067000020BD
:1031F000002400BFFDF776F8044605480068401C2F
:10320000034908602046FDF771F8FFF744F9F1E73C
:1032100068000020002402E0C820FFF771FA1A4875
:1032200000780028F8D0194800686421B0FBF1F05C
:10323000164908600846006828B90020144908703B
:10324000FF20FFF707FA00BFFDF74CF804461148CE
:1032500000681149086000200E4908602046FDF70B
:1032600045F80D48006809490968B0FBF1F0C0F164
:10327000640007490870FFF757F900F00FF8642061
:10328000FFF73EFAE0E700005C0000205400002059
:103290005000002068000020580000207CB5002568
:1032A00014E069462846FFF741F9064666B9094821
:1032B00050F8254044B1012C06D0D4E9020100EBBE
:1032C000810060640198A064681CC5B21F2DE8DD10
:1032D0007CBD00006C16002002F0010343B102F037
:1032E00002032BB102E0491E002308C00029FAD1D5
:1032F0007047000029B1064AD2690243044BDA61E3
:1033000004E0034AD2698243014BDA61704700004E
:103310000010024029B1064A92690243044B9A61A7
:1033200004E0034A92698243014B9A6170470000AE
:103330000010024010B500F087F910BD30B5002133
:103340000022002400232D4D6D6805F00C0121B1F1
:10335000042905D0082923D105E0294D056022E084
:10336000274D05601FE0254D6D6805F47012234D53
:103370006D6805F48034022505EB92421CB9214D9D
:10338000554305600BE01D4D6D6805F400351DB11A
:103390001C4D5543056002E0194D5543056002E0A0
:1033A000174D056000BF00BF144D6D6805F0F001BA
:1033B0000909154D6B5C0568DD4045600F4D6D6872
:1033C00005F4E061090A104D6B5C4568DD408560DD
:1033D0000A4D6D6805F46051C90A0B4D6B5C456878
:1033E000DD40C560054D6D6805F44041890B074D12
:1033F0006B5CC568B5FBF3F5056130BD001002409C
:1034000000127A0000093D002E0000203E0000203E
:103410000C480078002813DD0A480078401E09494E
:1034200008700846007858B907480088002807DD6A
:1034300000200549088001200449087004490870EB
:1034400070470000080000202C0000200900002028
:103450001C000020704770470FB408B503A8009007
:103460000648009A0299FCF78FFF0020009003485D
:1034700000F006F801B05DF814FB00009E0F00207C
:1034800010B504460DE020780A2806D10D2000F082
:1034900041FA0A2000F03EFA02E0207800F03AFA01
:1034A000641C20780028EED110BD10B500F002F8A1
:1034B00010BD00000CB5002001900090334800685A
:1034C00040F480303149086000BF3048006800F4A3
:1034D000003000900198401C0190009818B90198A4
:1034E000B0F5A06FF1D12948006800F4003010B1A8
:1034F0000120009001E0002000900098012843D1B5
:103500002348006840F01000214908600846006820
:1035100020F0030008600846006840F002000860E0
:103520001A4840681949486008464068486008469B
:10353000406840F4806048600846406820F47C1091
:1035400048600846406840F4E81048600846006853
:1035500040F08070086000BF0C48006800F0007008
:103560000028F9D00948406820F003000749486066
:103570000846406840F00200486000BF03484068C9
:1035800000F00C000828F9D10CBD0000001002402A
:103590000020024000BF0748007808B1FEF734FA67
:1035A000FEF75EFC0A23002211461046FFF7E0F802
:1035B000F1E700001C00002010B5FFF729FFFCF721
:1035C00091FE044606480078401C054908702046D4
:1035D000FCF78CFEFFF712F9FEF798FD10BD000016
:1035E0005D00002070B586B001A8FFF7A7FE4FF47C
:1035F0007A710298B0FBF1F42146481EB0F1807F49
:1036000000D31BE0481E4FF0E022506150170F22FC
:10361000002804DB13071D0E094B1D5406E0130799
:103620001E0E084B00F00F052D1F5E5500BF002039
:103630004FF0E02290610720106100BF06B070BD1E
:1036400000E400E018ED00E010B51348006840F019
:1036500001001149086008464068104908400E49B9
:103660004860084600680E4908400B490860084653
:10367000006820F4802008600846406820F4FE00BE
:1036800048604FF41F008860FFF70FFF4FF00060A5
:103690000449086010BD0000001002400000FFF85F
:1036A000FFFFF6FE08ED00E010B50121880700F0ED
:1036B00018F818B10121880700F010F810BD0000BB
:1036C00010B50121044800F00CF818B1012102489E
:1036D00000F004F810BD000000080040CA43028258
:1036E000704730B50246002000230024158A05EA01
:1036F0000103958905EA010413B10CB1012000E032
:10370000002030BD10B540F22551054800F047F9C2
:1037100020B140F22551024800F019F910BD000017
:10372000004C004000B587B001210520FFF7F2FDF5
:1037300001218803FFF7EEFD4FF40070ADF818008B
:1037400018208DF81B0003208DF81A0006A91F48C9
:10375000FEF7E0F94FF48060ADF8180004208DF812
:103760001B0006A91948FEF7D5F94FF41650029030
:103770000020ADF80C00ADF80E00ADF81000ADF86B
:1037800014000C20ADF8120002A9114800F056F9FF
:1037900001210F4800F0EAF8012240F225510C48BF
:1037A00000F027F94FF4E060FEF7B8FB25208DF814
:1037B000040000208DF805008DF8060001208DF82A
:1037C000070001A8FEF772FB07B000BD000801402A
:1037D0000038014010B540F225510F4800F0DFF8E5
:1037E000C0B114200D49087000200D4908700A4826
:1037F00000F090F90B49087008460078FEF75CF974
:1038000009480088401C0849088040F225510248B8
:1038100000F09DF810BD00000038014008000020B5
:1038200009000020040000202C00002000B587B013
:1038300001212120FFF76EFD01218804FFF75AFDC9
:1038400001212948FEF7F2F94FF48070ADF8180015
:1038500018208DF81B0003208DF81A0006A92348B4
:10386000FEF758F94FF40070ADF8180004208DF8F9
:103870001B0006A91D48FEF74DF900211C4800F069
:1038800075F84FF4E13002900020ADF80C00ADF86F
:103890000E00ADF81000ADF814000C20ADF81200C9
:1038A00002A9134800F0CAF80121114800F05EF89F
:1038B000012240F225510E4800F09BF84FF4E060E1
:1038C000FEF72CFB27208DF8040002208DF8050060
:1038D00000208DF8060001208DF8070001A8FEF7F2
:1038E000E5FA07B000BD00003000140000140140EC
:1038F0000048004010B540F22551054800F04FF84F
:1039000020B140F22551024800F021F810BD00001E
:103910000048004010B504462146074800F0FFF873
:1039200000BF4021044800F02DF80028F9D04021C4
:10393000014800F003F810BD0048004001F4007297
:10394000B2F5007F00D100BFCA430280704710B5B6
:103950000022002340F66A14A14200D100BF0A12DF
:1039600001249440A3B2DC43048010BD21B18289BC
:1039700042F40052828104E082894DF6FF731A40BE
:103980008281704702460020B1F5007F00D100BF60
:1039900013880B400BB1012000E00020704770B588
:1039A0000246002400230025002040F66A16B1429A
:1039B00000D100BFC1F3421501F01F03012606FA32
:1039C00003F3012D02D19689334006E0022D02D186
:1039D000168A334001E0968A33400C12012606FA1B
:1039E00004F41688344013B10CB1012000E000202B
:1039F00070BDF0B50346002400260025002040F6E7
:103A00006A17B94200D100BF1846C1F3421401F051
:103A10001F06012707FA06F5012C01D10C3004E03E
:103A2000022C01D1103000E014301AB107682F4386
:103A3000076002E00768AF430760F0BD2DE9F0477B
:103A400086B005460E460024A24600BFA1460027C8
:103A5000B08900B100BF2F462C8A4CF6FF7004409D
:103A6000F08804432C82AC894EF6F3100440B088F1
:103A700031890843718908430443AC81AC8A4FF60D
:103A8000FF400440B0890443AC8201A8FFF756FC14
:103A90001F48874202D1DDF810A001E0DDF80CA03C
:103AA000A88900F4004040B10AEBCA0000EB0A10FC
:103AB00031684900B0FBF1F807E00AEBCA0000EBFF
:103AC0000A1031688900B0FBF1F86420B8FBF0F00F
:103AD00004012009642101FB1089A88900F4004039
:103AE00040B1322000EBC900B0FBF1F000F007005C
:103AF000044308E0322000EB09106421B0FBF1F030
:103B000000F00F0004432C8106B0BDE8F0870000F0
:103B10000038014001468888C0F308007047C1F3AF
:103B200008028280704700BFFEE7490050EAC120CA
:103B300018BF04204A0D18BF40F0010040F2FF7288
:103B4000B2EB515F08BF40F00200012808BF05201A
:103B5000704730380A2801D2012070470020704792
:103B600000B587B0FCF7A8FBFEF7ACFAFDF7BAFE8C
:103B7000FEF70CFC0020FEF711FB2649086026A08A
:103B8000FFF76AFC032000214FF48072254BCDE93A
:103B90000132CDE9031005200346234A0090234853
:103BA000FEF71CFC06AA22A10520FEF775FC0320E7
:103BB00000214FF48072214BCDE90132CDE9031091
:103BC000062003461E4A00901E48FEF707FC06AA80
:103BD0001DA10620FEF760FC032000214FF4807237
:103BE0001C4BCDE90132CDE90310072003461A4AE8
:103BF00000901A48FEF7F2FB06AA19A10720FEF76B
:103C00004BFC0020FEF7ECFDFEF79CFB002007B00C
:103C100000BD00000000002053746172742E2E2E2F
:103C20000A000000A00000209C0400209535000838
:103C30005369676E616C5461736B0000A0040020CF
:103C40009C080020851E00084D6F646275735461E6
:103C5000736B0000A00800209C0C0020631E00086D
:103C60004D61696E5461736B0000000010B500294E
:103C70000AD00878002807D005487844FDF730FAC4
:103C8000002801D0002010BD0248784410BD00007B
:103C9000A60200009E02000010B500290AD0087894
:103CA000002807D005487844FDF71AFA002801D00B
:103CB000002010BD0248784410BD000096020000AC
:103CC0008E020000FCF79DBF010000007856341200
:103CD0000A00100001002000400101001C00140037
:103CE0000200050010001F00010001000500100087
:103CF0002400B400010004000100040018000400C6
:103D00000100040001000100010080000100160014
:103D10001000010080000100010020005C00E803A9
:103D200001001E018A0F00000100020001000300D3
:103D30000100020001000400010002000100030074
:103D40000100020001000500010002000100030063
:103D50000100020001000400010002000100030054
:103D60000100020001000600010002000100030042
:103D70000100020001000400010002000100030034
:103D80000100020001000500010002000100030023
:103D90000100020001000400010002000100030014
:103DA0000100020001000700010002000100030001
:103DB00001000200010004000100020001000300F4
:103DC00001000200010005000100020001000300E3
:103DD00001000200010004000100020001000300D4
:103DE00001000200010006000100020001000300C2
:103DF00001000200010004000100020001000300B4
:103E000001000200010005000100020001000300A2
:103E10000100020001000400010002000100030093
:103E2000010002000100000000000000000000008E
:103E300030313233343536373839414243444546E0
:103E400040305800303132333435363738396162DA
:103E500063646566403078000400000800000000DC
:103E600000000002000100001000000002400000FD
:103E7000000000A00000000005400000000000C895
:103E8000000000000C4000000000409C000000000A
:103E9000194000000020BCBE0000000034400000BB
:103EA000BFC91B8E00000004B5400000504BCFD0AE
:103EB0006607E2CF010000006C4100003E8251AA7B
:103EC000DFEEA73401000000D9420000DCB5A0E21B
:103ED0003A301F97FFFFFFFFB4450000FD25A0C843
:103EE000E9A3C14FFFFFFFFFFF3F0000000000807C
:103EF00000000000FF3F0000000000800000000004
:103F00004C40000800000020A00000006C010008E8
:103F1000EC400008A0000020282B000088010008C9
:103F20001C00000043000000F8FFFFFF0C00000031
:103F30000E0000000F0000002E0000001001000025
:103F400043000000F8FFFFFF004040404040404079
:103F5000404041414141414040404040404040405C
:103F60004040404040404040400502020202020200
:103F7000020202020202020202202020202020204F
:103F80002020200202020202020290909090909063
:103F90001010101010101010101010101010101021
:103FA0001010101002020202020288888888888895
:103FB0000808080808080808080808080808080881
:103FC0000808080802020202400000000000000089
:103FD00000000000000000000000000000000000E1
:103FE00000000000000000000000000000000000D1
:103FF00000000000000000000000000000000000C1
:1040000000000000000000000000000000000000B0
:1040100000000000000000000000000000000000A0
:104020000000000000000000000000000000000090
:104030000000000000000000000000000000000080
:104040000000000000000000000000000000000070
:10405000000000000000010000000000000000005F
:104060000000000000000000000000000000000050
:10407000000000000000000000000000000001023D
:1040800003040102030406070809020406080000ED
:104090000000000000000000000000000000000020
:1040A0000000000000000000000000000000000010
:1040B0000000000000000000000000000000000000
:1040C00000000000000000000000000000000000F0
:1040D00000000000000000000000000000000000E0
:0C40E000000000000000000000000000D4
:0400000508000131BD
:00000001FF
